:100000000C945E040C9486040C9486040C94860470
:100010000C9486040C9486040C9486040C94860438
:100020000C9486040C9486040C94EE1E0C946B1FA6
:100030000C9486040C9486040C9486040C94860418
:100040000C9486040C9486040C9486040C94860408
:100050000C94F5210C9486040C9486040C94A41E34
:100060000C9486040C94C3210C949D210C9486045A
:100070000C9486040C9486040C9486040C948604D8
:100080000C9486040C9486040C9486040C948604C8
:100090000C9486040C9486040C9486040C948604B8
:1000A0000C9486040C9486040C94860408000000CA
:1000B000BE922449123EABAAAA2ABECDCCCC4C3E5D
:1000C00000000080BEABAAAAAA3E00000000BF004C
:1000D0000000803F0000000000084178D3BB438748
:1000E000D1133D190E3CC3BD4282AD2B3E68EC825C
:1000F00076BED98FE1A93E4C80EFFFBE01C4FF7FE1
:100100003F0000000000524E32343833006D61630E
:100110005F657272006D61635F7278006D61635F2D
:1001200074785F6F6B006163636570746564006F02
:100130006666006F6E006572720073696C656E743E
:10014000006E6F745F6A6F696E6564006E6F5F66E4
:100150007265655F6368006D756C74696361737463
:100160005F6B6579735F6E6F745F736574006D614B
:10017000635F706175736564006B6579735F6E6F43
:10018000745F696E697400696E76616C69645F7032
:100190006172616D00696E76616C69645F6461743F
:1001A000615F6C656E00696E76616C69645F636C3B
:1001B000617373006672616D5F636F756E746572F3
:1001C0005F6572725F72656A6F696E5F6E656564A6
:1001D00065640062757379006F6B00206D73002099
:1001E00054696D6520546F74616C3A200020546925
:1001F0006D652052583A20002054696D652054588E
:100200003A200020736E7220002072737369200000
:1002100020707772205B64426D5D2000204672651D
:1002200071205B687A5D2000204D534B205B454E6A
:100230005D2000204452200020435220342F0045EE
:1002400072726F723A20556E6B6E6F776E20636FAD
:100250006D6D616E6420004572726F723A20496E56
:1002600076616C69642076616C7565210A0045725F
:10027000726F723A20746F6F206C6F6E67207661B8
:100280006C7565212052656D656D626572207573B0
:10029000696E67206820746F207465726D696E6185
:1002A0007465206865780A004572726F723A20742E
:1002B0006F6F206C6F6E672076616C7565210A0028
:1002C000526573756C74733A0A0053656C65637498
:1002D00020546573743A0A004552524F523A2074C2
:1002E000657374206D616C66756E6374696F6E0AF8
:1002F000004552524F523A20647572696E672073FE
:100300007461746520657865637574696F6E0A0041
:10031000646F6E650A00506F6C6C202D204E6F204C
:10032000726573706F6E73652066726F6D20736592
:10033000727665722E0A00456E6420746573740AC5
:100340000052657374617274202D20496E69740ABD
:100350000052657365740A004576616C7561746559
:100360000A0052657472790A0053746F70207465C4
:1003700073740A00506F6C6C20666F7220616E732C
:100380007765720A00537461727420746573740A1D
:1003900000446576416464723A20004D6F64656C78
:1003A0003A200056657273696F6E3A2000525820E9
:1003B00044656C617920323A200052582044656CC3
:1003C000617920313A200044617461205261746582
:1003D0003A200042616E643A2000446576455549F2
:1003E0003A20004170704555493A200042617474CA
:1003F0006572793A20004555493A2000736E7200C3
:100400007273736900707772007764740072786237
:1004100077006672657100736600637200637263D1
:100420000070726C656E00627700676574007365BA
:100430007400726164696F0070696E646967006E50
:10044000766D00687765756900766464007665721C
:10045000006765740073657400666163746F727918
:100460005245534554006572617365465700726585
:1004700073657400736C6565700073797300756ED5
:10048000636E6600636E66007374617475730066F4
:1004900072657100647272616E676500646379638E
:1004A0006C6500616270006F74616100646E6374FA
:1004B0007200757063747200737461747573006395
:1004C0006C617373006D72676E0067776E620063B4
:1004D00068007278320061720062616E6400727846
:1004E00064656C61793200727864656C61793100A1
:1004F0006C696E6B63686B0072657478006261741E
:1005000000616472006472007077726964780061DF
:1005100070706B657900617070736B6579006E77D0
:100520006B736B65790061707065756900646576E1
:10053000657569006465766164647200676574005E
:1005400073657400726573756D65007061757365B0
:1005500000666F726365454E41424C45007361769B
:1005600065006A6F696E0074780072657365740067
:100570006D6163005375636365737366756C207496
:1005800072616E736D697373696F6E2E205265634D
:10059000656976656420005375636365737366757A
:1005A0006C207472616E736D697373696F6E004A4B
:1005B0006F696E2061636365707465642E20537487
:1005C000617475733A2000506572736F6E616C6967
:1005D0007A652061636365707465642E205374616D
:1005E0007475733A20004E6F20726573706F6E736E
:1005F000652066726F6D20524E206D6F64756C655C
:100600002E00436865636B20796F757220636F7687
:1006100065726167652C206B65797320616E64205B
:100620006261636B656E64207374617475732E0010
:100630004F6E65206F72206D6F7265206B657973E8
:1006400020617265206F6620696E76616C69642036
:100650006C656E6774682E00526573706F6E73659B
:10066000206973206E6F74204F4B3A2000506572E2
:10067000736F6E616C697A65206E6F74206163635D
:100680006570746564004A6F696E206E6F742061D6
:10069000636365707465643A200053656E64206A14
:1006A0006F696E20636F6D6D616E64206661696C49
:1006B00065640053656E6420636F6D6D616E6420C8
:1006C0006661696C656400556E6578706563746514
:1006D0006420726573706F6E73653A2000496E76A0
:1006E000616C6964206672657175656E63792070EE
:1006F0006C616E00496E76616C696420534600D867
:100700000133012F0126011C0115010D010601D83D
:1007100001D301B401A6019501870179016E01574A
:10072000014C0141013A0136013802330228021C12
:1007300002100209020302F801ED01DF01DB01856D
:10074000037403690362035803510341033703161B
:10075000031003F102D802CA02C002A8026E0257B7
:10076000023F02080B00020202000009040000011F
:1007700002020000052400100105240101010424E7
:100780000206052406000107058103100040090444
:100790000100020A000000070502024000000705F0
:1007A00083024000000403090412010002EF020169
:1007B00040412336800001010203014172647569E2
:1007C0006E6F204C4C430041726475696E6F204C13
:1007D000656F6E6172646F003000200053656E6457
:1007E000696E673A200053656E64696E673A20004F
:1007F000F603EC03E303DA03D303C703BA03AD0341
:10080000A3039B039103200053656E64696E673AEE
:100810002000200032042E042A04270421041D0491
:100820001A04170412040D04090405040004FC034F
:100830007A0474046E0466045904550451044D048A
:10084000490443043F04380484047E049C04940453
:100850008F048804A704A30434052D0526051E056E
:1008600016050F05080505050105FD04F804F0044B
:10087000E704DE04D904D604D204CF04CA04C504B4
:10088000BF04B804B204AC0470056A0567056205CC
:100890005D0551054B05440540053C05C705AF0501
:1008A00097057405F406DD06C706B3069A068606A4
:1008B0006D06580630060206E6050C2211241FBEFE
:1008C000CFEFDAE0DEBFCDBF12E0A0E0B1E0EAE3B7
:1008D000F8E602C005900D92AE33B107D9F727E0D4
:1008E000AEE3B2E001C01D92AC37B207E1F714E00D
:1008F000CEE5D4E004C02197FE010E943B30CD3507
:10090000D107C9F70E94B6220C941B340C94000046
:100910008091190790911A07DC01ED91FC910084F8
:10092000F185E02D0995892B61F08091190790914F
:100930001A07DC01ED91FC910284F385E02D099505
:10094000E7CF0895ECE7F6E0A089B18982E08C93C7
:10095000A089B1891C92A485B5851C92A685B7850E
:1009600080E18C93108EA489B58986E08C93A2894E
:10097000B3898C9180618C93A289B3898C918860B2
:100980008C93A289B3898C9180688C930288F389B7
:10099000E02D80818F7D80830895FC018091130676
:1009A000882311F13FB7F89482E08093E900209109
:1009B000F200822F90E01816190614F481E090E0FE
:1009C000882339F0289844E6409312064091F100BC
:1009D0004083222339F02091F200211103C02BE63D
:1009E0002093E8003FBF08958FEF9FEF089583E0C5
:1009F0008093E9008091F200882319F08AE38093C4
:100A0000E80008952FB7F89483E08093E90090916F
:100A1000E800892F807295FF04C09091F20080E475
:100A2000891B2FBF089580910A0681110DC082E0B5
:100A30008093060684E080930706109209061092C0
:100A4000080681E080930A0686E096E008953FB7A5
:100A5000F8948091020690910306A0910406B0914B
:100A6000050626B5A89B05C02F3F19F00196A11DCC
:100A7000B11D3FBFBA2FA92F982F8827BC01CD01E8
:100A8000620F711D811D911D42E0660F771F881F47
:100A9000991F4A95D1F708958F929F92AF92BF9276
:100AA000CF92DF92EF92FF924B015C010E942705EB
:100AB0006B017C010E9427056C197D098E099F0935
:100AC000683E734081059105A8F321E0821A9108E0
:100AD000A108B10888EEC80E83E0D81EE11CF11C05
:100AE00081149104A104B10429F7FF90EF90DF90E5
:100AF000CF90BF90AF909F908F9008952FB7F894AC
:100B00006091FE057091FF058091000690910106AD
:100B10002FBF08958F929F92AF92BF92CF92DF9294
:100B2000EF92FF920F931F93CF93DF93EC016A0133
:100B30007B0110E000E00E947E05688779878A8744
:100B40009B87E881F9810284F385E02DCE01099528
:100B500097FF21C00E947E0588849984AA84BB8463
:100B6000681979098A099B098C809D80AE80BF80B5
:100B7000681579058A059B0520F3C801DF91CF919F
:100B80001F910F91FF90EF90DF90CF90BF90AF90AB
:100B90009F908F9008958A30910579F3F7018193A2
:100BA0007F010F5F1F4FC016D10629F6E6CF0C94C8
:100BB000F704409195025091960220919302309152
:100BC000940242175307B4F49091E8009570E1F352
:100BD0009091E80092FD19C08093F10080919502F8
:100BE0009091960201968F739927892B19F48EEFB5
:100BF0008093E800809195029091960201969093DF
:100C000096028093950281E0089580E00895EF9226
:100C1000FF920F931F93CF93DF93F82E192FE62E99
:100C2000042F81E0860F880F0E94D90583E00E947F
:100C3000D905CF2DD12FEC0EFD2EF11CCE15DF05E1
:100C4000B9F007FF13C0FE0184910E94D905182F47
:100C500080E00E94D905812321968111EFCFDF9199
:100C6000CF911F910F91FF90EF9008958881EDCF64
:100C700081E0F5CFDF92EF92FF920F931F93CF9316
:100C8000DF93D82E8A01EB017B01E40EF51ECE1511
:100C9000DF0559F0D7FE12C0FE0184910E94D905EC
:100CA00021968111F4CF0FEF1FEFC801DF91CF9193
:100CB0001F910F91FF90EF90DF9008958881EECF04
:100CC0000F931F93CF93DF931F92CDB7DEB782E0D0
:100CD000898342E450E063E677E080E80E943A06C8
:100CE0000E941305DC0112960D911C91011511054E
:100CF00089F0D801ED91FC910280F381E02DBE01D5
:100D00006F5F7F4FC801099597FD04C0F80100850A
:100D10001185ECCF89810F90DF91CF911F910F91B9
:100D20000895615030F02091F100FC01208301967C
:100D3000F8CF289884E6809312060895EF92FF92E8
:100D40000F931F93CF93DF938C017B01D0E0C0E022
:100D5000F701EC0FFD1F6491662361F0D801ED915E
:100D6000FC910190F081E02DC8010995892B11F0CB
:100D70002196EECFCE01DF91CF911F910F91FF9081
:100D8000EF900895AF92BF92CF92DF92EF92FF92D1
:100D90000F931F93CF93DF936C017B018B01040FA3
:100DA000151FEB015E01AE18BF08C017D10759F03F
:100DB0006991D601ED91FC910190F081E02DC60181
:100DC0000995892B79F7C501DF91CF911F910F917B
:100DD000FF90EF90DF90CF90BF90AF900895FC010F
:100DE000538D448D252F30E0842F90E0821B930B90
:100DF000541710F0CF96089501970895FC01918D36
:100E0000828D981761F0A28DAE0FBF2FB11D5D9638
:100E10008C91928D9F5F9F73928F90E008958FEFDA
:100E20009FEF0895FC01918D828D981731F0828D8E
:100E3000E80FF11D858D90E008958FEF9FEF0895E5
:100E4000FC01918D228D892F90E0805C9F4F821B49
:100E500091098F73992708958CE796E00E942007E7
:100E600021E0892B09F420E0822F089580E090E0B2
:100E7000892B29F00E942C0781110C940000089501
:100E8000FC01A48DA80FB92FB11DA35ABF4F2C91FF
:100E9000848D90E001968F739927848FA689B789F6
:100EA0002C93A089B1898C9182748C93938D848DBD
:100EB000981306C00288F389E02D80818F7D80839E
:100EC0000895EF92FF920F931F93CF93DF93EC015E
:100ED00081E0888F9B8D8C8D981319C0E889F989E2
:100EE000808185FF14C09FB7F894EE89FF896083E5
:100EF000E889F9898081827480839FBF81E090E0D6
:100F0000DF91CF911F910F91FF90EF900895F62EF2
:100F10000B8D10E00F5F1F4F0F731127E02E8C8D8C
:100F20008E110CC00FB607FCFACFE889F9898081D1
:100F300085FFF5CFCE010E944007F1CFEB8DEC0F7E
:100F4000FD2FF11DE35AFF4FF0829FB7F8940B8FEE
:100F5000EA89FB8980818062CFCFCF93DF93EC0158
:100F6000888D8823B9F0AA89BB89E889F9898C9191
:100F700085FD03C0808186FD0DC00FB607FCF7CF4D
:100F80008C9185FFF2CF808185FFEDCFCE010E944D
:100F90004007E9CFDF91CF9108958F929F92AF9252
:100FA000BF92CF92DF92EF92FF920F931F93CF9356
:100FB000DF936C017B018A0180910B01882309F486
:100FC0005CC080911306882309F457C08091990270
:100FD00080FF05C08091E00082608093E000E8011E
:100FE000B12C8AEFA82E93E0892E2AE3922E209727
:100FF00011F4BB20D9F10E94020581110AC0AA9404
:10100000AA20D9F161E070E080E090E00E944C05F8
:10101000EECF8C171D0611F00CF08C2F9FB7F894B3
:101020008092E9002091E80025FD02C09FBFDFCF3C
:10103000282F30E0C21BD30BF701815020F04191E3
:101040004093F100FACFE20EF31EBB2021F0909204
:10105000E800B12CEBCF8091E80085FDE7CF9092BE
:10106000E800BB24B394209709F3F3CF5D9884E69E
:1010700080939802101611063CF081E090E0F60192
:101080009383828310E000E0C801DF91CF911F912C
:101090000F91FF90EF90DF90CF90BF90AF909F9017
:1010A0008F900895CF93DF931F92CDB7DEB76983FA
:1010B000DC01ED91FC910280F381E02D41E050E0F4
:1010C000BE016F5F7F4F09950F90DF91CF9108951B
:1010D0000E94020590E00895CF93DF931F92CDB751
:1010E000DEB7FC018485958597FD08C02FEF3FEFA3
:1010F000358724870F90DF91CF910895CE01019617
:101100000E94CD04019719F4898190E0F3CF8FEF0D
:101110009FEFF0CF0F931F93CF93DF931F92CDB725
:10112000DEB78C01FC018485958597FF0BC0CE014D
:1011300001960E94CD04019771F4898190E0F80135
:1011400095878487F801848595850F90DF91CF91ED
:101150001F910F9108958FEF9FEFF1CFFC018485D0
:10116000958597FD0BC09FB7F89482E08093E900C6
:101170008091F2009FBF90E0019608959FB7F89488
:1011800082E08093E9008091F2009FBF90E0089593
:1011900090E080E00895CF92DF92EF92FF92E0918D
:1011A000A902F091AA022FB7F894409184005091BF
:1011B00085008091910290919202B0E0A0E0DC0164
:1011C0009927882770E060E0842B952BA62BB72BFE
:1011D0000497A109B1092FBF42E0880F991FAA1FE8
:1011E000BB1F4A95D1F785879687A787B08BE0917B
:1011F000A902F091AA02C584D684E784F08885818B
:101200009681A781B085C81AD90AEA0AFB0AA0917B
:10121000AB02B091AC0215962D913C91A8EEB3E0D3
:101220000E94582EC61AD70AE80AF90AC186D28641
:10123000E386F486FF90EF90DF90CF900895E091E1
:10124000A902F091AA022FB7F8944091840050911E
:1012500085008091910290919202B0E0A0E0DC01C3
:101260009927882770E060E0842B952BA62BB72B5D
:101270000497A109B1092FBF42E0880F991FAA1F47
:10128000BB1F4A95D1F785839683A783B0870895BE
:10129000E091A902F091AA021582168217821086A7
:1012A0001186128613861486158616861786108A6E
:1012B0001092850010928400109292021092910276
:1012C00083E0809381000895FB0101900020E9F7FD
:1012D0003197AF01461B570BDC01ED91FC91028069
:1012E000F381E02D099461E671E00C9464096115C5
:1012F000710511F00C94640990E080E008958F92DC
:101300009F92AF92BF92EF92FF920F931F93CF9352
:10131000DF93CDB7DEB7A1970FB6F894DEBF0FBE4F
:10132000CDBF7C01FA01CB0119A2223008F42AE0DA
:101330008E010F5D1F4F822E912CB12CA12CBF016D
:10134000A50194010E94CD2DF901CA016A30ECF487
:10135000605DD8016E938D01232B242B252B79F70B
:10136000BD01C7010E947709A1960FB6F894DEBFB0
:101370000FBECDBFDF91CF911F910F91FF90EF90E6
:10138000BF90AF909F908F900895695CE2CFCF920D
:10139000DF92EF92FF92CF93DF936B017C016DE2BE
:1013A0008CE296E00E945208EC0144275527BA01CE
:1013B0004C195D096E097F092AE08CE296E00E94D3
:1013C0007F098C0F9D1FDF91CF91FF90EF90DF90F1
:1013D000CF900895CF93DF93AC01092E000C660BDC
:1013E000770B97FF0EC0CB01BA010E94C709EC0131
:1013F0008CE296E00E9473098C0F9D1FDF91CF91C4
:1014000008952AE08CE296E00E947F09F0CFAC01BB
:10141000092E000C660B770B97FF04C0CB01BA01B5
:101420000C94C7092AE08CE296E00C947F090F9394
:101430001F93CF93DF93EC010E9477098C01CE01BB
:101440000E947309800F911FDF91CF911F910F911F
:1014500008950C9477090F931F93CF93DF93CDB723
:10146000DEB7C456D1090FB6F894DEBF0FBECDBFAC
:101470008A01E62FF0E0EE0FFF1F883059F1EC559E
:10148000F74F65917491CE0101960E94462C809190
:101490001B0790911C07009701F1BE016F5F7F4F02
:1014A0000E94290A01151105D1F080911B07909126
:1014B0001C07009719F0B8010E94170ACC59DF4F9A
:1014C0000FB6F894DEBF0FBECDBFDF91CF911F9155
:1014D0000F910895E456F74FD4CF012B79F78091FF
:1014E0001B0790911C07009749F30E947309E6CFF0
:1014F000EF92FF921F93CF93DF93EC017B0114E0F7
:10150000115079F0A701BE018091190790911A0737
:101510000E948A050097A1F3C80FD91F219718824E
:101520000BC081E080936D0750E040E06AE087E007
:101530000E942B0A90E080E0DF91CF911F91FF90F5
:10154000EF9008950F931F93CF93DF93CDB7DEB73E
:10155000C456D1090FB6F894DEBF0FBECDBF042F1D
:10156000122FE62FF0E0EE0FFF1F833009F455C075
:1015700008F044C0813009F44AC0823009F44AC0FE
:10158000E857F74F65917491CE0101960E94462C61
:10159000BE016F5F7F4F8091190790911A070E94DB
:1015A0007709002341F06BEE71E08091190790916B
:1015B0001A070E9477091123A9F080911B079091C7
:1015C0001C07009729F0BE016F5F7F4F0E94290A18
:1015D00080911B0790911C07009721F062E178E051
:1015E0000E949E06CC59DF4F0FB6F894DEBF0FBEA7
:1015F000CDBFDF91CF911F910F910895853099F064
:1016000078F0863009F0BCCFEC5EF74FBBCFE85ADC
:10161000F74FB8CFEC5AF74FB5CFE45BF74FB2CFE7
:10162000E85BF74FAFCFE05DF74FACCFDF92EF92C3
:10163000FF920F931F93CF93DF93D82EF62EE42EB5
:10164000E9010E94880420E041E060E08D2D0E94C5
:10165000A20A20E041E069E080E00E94A20A20E0C6
:1016600040E06E2D8F2D0E94A20A61E671E080910C
:10167000190790911A070E947709B801CE01DF91EE
:10168000CF911F910F91FF90EF90DF900C94780A0B
:10169000CF93E0911907F0911A0780ED97E0A0E051
:1016A000B0E084839583A683B783CBE090E080E0AD
:1016B000C15009F44EC0892B09F04BC064E670E0BC
:1016C00080E090E00E944C058091190790911A07E4
:1016D000DC01ED91FC910190F081E02D60E0099535
:1016E0008091190790911A07DC01ED91FC9101900E
:1016F000F081E02D65E5099561E671E080911907BB
:1017000090911A070E94770920E041E060E085E0AF
:101710000E94A20A20E041E066E085E00E94A20A61
:1017200020E040E067E085E00E94A20A61E671E007
:101730008091190790911A070E94770940E450E0C0
:1017400062E277E08091190790911A070E948A055A
:10175000AFCF64E670E080E090E00E944C050E940C
:101760008804E0911907F0911A0780E197E2A0E060
:10177000B0E084839583A683B78381E0809362077A
:10178000CF9108950F931F93CF93DF93CDB7DEB71B
:10179000C456D1090FB6F894DEBF0FBECDBF8B0182
:1017A000E82FF0E0EE0FFF1FE051F84F65917491C4
:1017B000CE0101960E94462C80911B0790911C0738
:1017C000009789F0BE016F5F7F4F0E94290A0115C3
:1017D000110549F080911B0790911C07009719F0A3
:1017E000B8010E94170ACC59DF4F0FB6F894DEBF3C
:1017F0000FBECDBFDF91CF911F910F9108954F92F2
:101800005F926F927F928F929F92AF92BF92CF9290
:10181000DF92EF92FF9228EE33E040E050E00E942A
:10182000CD2D49016B017C012AE0BA01A4018CE2B3
:1018300096E00E947F0964E671E08CE296E00E94E7
:10184000290A84E6882E912CA12CB12C9AE0492EED
:10185000512C612C712CC814D904EA04FB0478F4CF
:1018600066E671E08CE296E00E94290AC501B401A7
:10187000A30192010E94CD2D49015A01ECCFC11460
:10188000D104E104F10499F02AE0B701A6018CE249
:1018900096E0FF90EF90DF90CF90BF90AF909F9039
:1018A0008F907F906F905F904F900C947F09FF9086
:1018B000EF90DF90CF90BF90AF909F908F907F90F0
:1018C0006F905F904F900895CF93DF93CDB7DEB7C1
:1018D000AE970FB6F894DEBF0FBECDBFFB01EE0F83
:1018E000FF1F0197C1F0E15CF84F65917491CE0143
:1018F00001960E94462CBE016F5F7F4F8CE296E0FE
:101900000E94290AAE960FB6F894DEBF0FBECDBF77
:10191000DF91CF910895E75DF84FE7CFCF92DF9247
:10192000EF92FF920F931F93CF93DF93EC016B0124
:1019300018827C018CE296E00E948A08182F873476
:1019400034F5813424F480ED810F8A3030F58CE257
:1019500096E00E946C08F70111937F018F010C1B28
:101960001D0BC016D10634F76FE070E090E080E008
:101970000E94640CC00FD11F21971882DF91CF9174
:101980001F910F91FF90EF90DF90CF9008958136D7
:1019900024F08736E4F2883619F0F7011082EECF92
:1019A0008CE296E00E946C08F8CFAEE3B2E083E5EB
:1019B000FD0111928A95E9F7E4E1F6E0B787A68781
:1019C0008FE592E0918B808B80E892E09587848709
:1019D00008950F931F9300E410E022E237E04CE0FB
:1019E00066E086E00E94160B892B31F082E297E0D8
:1019F0001F910F910C94F82B81E09FEF1F910F9195
:101A000008950F931F9300E410E022E237E047E0CF
:101A100061E080E00E94160B892B39F082E297E0AA
:101A20000E94F82B1F910F9108958FEFFBCF0F931A
:101A30001F93CF93DF93D0E0C0E00AE08CE296E002
:101A40000E948A08182F8823E9F080ED810F8A30E0
:101A5000C8F4BE0190E080E00E949E2C0E947A2F84
:101A600020E030E040E850E40E94752F87FD10C070
:101A70006EE070E090E080E00E94640C8CE296E002
:101A80000E947309CE01DF91CF911F910F910895AC
:101A90008CE296E00E946C080C9FC0010D9F900D97
:101AA0001124EC01E097C10FD11D17FDDA95C6CFC7
:101AB0002F923F924F925F926F927F928F929F925E
:101AC000AF92BF92CF92DF92EF92FF920F931F934C
:101AD000CF93DF933BEEE32E31E2F32E4DE1C42EA4
:101AE0004DE1D42E5CE9A52E5CE1B52E67E7262EEC
:101AF0006CE1362E7AE1472E7CE1572EE8EC6E2E13
:101B0000E8E07E2E88248394912C8CE296E00E945B
:101B1000AE08892B09F4FDC28CE296E00E946C08A5
:101B2000833509F4FDC0D4F58D3079F3ECF48A30B7
:101B300061F3C82F082E000CDD0B90911406913034
:101B400009F089C1833609F474C10CF01FC18236D3
:101B500009F44AC161E170E090E080E00E94640C09
:101B6000CE010E94EA09D1CF893409F4F0C0823550
:101B700001F780911406882341F2813009F0B8C042
:101B800080911D0690911E06892B09F0C4C060E16A
:101B900070E090E080E00E94640CB7CF8D3699F140
:101BA000DCF4843509F4CCC08C3619F60E94170D8C
:101BB00080931706833F08F4A8CF809114068230E3
:101BC00008F4A3CF60E170E090E080E00E94640C34
:101BD00081E08093170699CF803709F479C0823766
:101BE00009F0A7CF0E94170D80931806853608F4D8
:101BF0008CCF60E170E090E080E00E94640CA5E092
:101C0000A093180682CF0E94170D8093140685308A
:101C100040F060E170E090E080E00E94640C10927F
:101C200014060E94D50C109215068091140682307D
:101C3000E9F178F4813001F110922706109226061E
:101C4000109229061092280610922B0610922A064E
:101C50005CCF8330C1F1843079F71092270610925F
:101C60002606109229061092280650922B064092C2
:101C70002A068093150649CF109227061092260651
:101C8000109229061092280670922B0660922A065E
:101C9000F0921E06E0921D062AEF2093200688E0AF
:101CA000809322069CE090931F062FCF1092270668
:101CB00010922606D0922906C0922806B0922B06D2
:101CC000A0922A0622CF3092270620922606F2CF33
:101CD0000E94170D80931606863008F416CF60E137
:101CE00070E090E080E00E94640C109216060DCF28
:101CF0008091200690912106892B09F448CF80918C
:101D0000220690912306892B09F441CF8091240665
:101D10009091250639CF9092FC058092FB05F5CE77
:101D20008091FB059091FC058230910514F482E0CE
:101D300090E09093FC058093FB0562E070E029CF72
:101D400068E671E08CE296E00E94170ADECE809190
:101D5000200690912106892B11F40E94D50C0E9437
:101D6000A204209120063091210601E210E049E012
:101D700065E085E00E94160B6091200670912106B7
:101D800061157105F9F66BE070E003CF8636A9F0B6
:101D9000833709F0DFCE0E94170D80931F0687500E
:101DA000863008F4B2CE60E170E090E080E00E94FE
:101DB000640C8CE080931F06A8CE0E94170D9093B0
:101DC0001E0680931D06865B91428734910508F4B8
:101DD0009CCE60E170E090E080E00E94640CF092A4
:101DE0001E06E0921D0691CE0E94170D80932006DC
:101DF0008A3F09F48ACE8D3709F487CE8E3309F4F1
:101E000084CE893209F481CE843109F47ECE982FB4
:101E10009F7E9F3009F479CE8A3009F476CE60E156
:101E200070E090E080E00E94640CBAEFB09320066E
:101E30006CCE0E94170D809322068550843008F4E2
:101E400064CE60E170E090E080E00E94640C28E0E5
:101E5000209322065ACE923008F47CCE813609F4C3
:101E600077C00CF052C0843409F49FC074F58134FB
:101E700009F4BDC0833409F06DCED0E0C0E08CE23F
:101E800096E00E948A08C115B0E1DB0708F4D0C0D3
:101E9000883609F4CDC06FE070E090E080E00E94E9
:101EA000640CD0931E06C0931D06CD2B09F02DCED9
:101EB00060E170E090E080E00E94640C8FEF90E0C1
:101EC00090931E0680931D0620CE8B3409F48FC09C
:101ED0008E3409F449C0853409F03CCE60E170E0ED
:101EE00080912206909123060E948E0CE09122069A
:101EF000F0912306DF010D900020E9F7CD01419715
:101F00008E179F0709F401CE45C08E3629F164F47F
:101F1000843609F4CCC0863619F1833609F01ACE1E
:101F200080911506877FA5CE853771F0883709F433
:101F3000CEC08F3609F00ECE809115068160809359
:101F400015060E94D50CE1CD80911506886091CED2
:101F5000809115068E7FF3CF80911506806289CE21
:101F600080911506826085CE60E270E08091220645
:101F7000909123060E948E0CA0912206B091230618
:101F8000FD0101900020E9F73197EA1BFB0BB097A8
:101F900008F0BBCD60E170E090E080E00E94640C4E
:101FA000E0912206F091230620C068E070E0809165
:101FB0002006909121060E948E0CE0912006F0915F
:101FC0002106DF010D900020E9F7CD0109978E175A
:101FD0009F0709F49ACD60E170E090E080E00E94F4
:101FE000640CE0912006F091210610828ECD60E213
:101FF00070E080912406909125060E948E0CE0915D
:102000002406F0912506DF010D900020E9F7CD01AF
:1020100081978E179F0709F478CD60E170E090E01A
:1020200080E00E94640CE0912406F0912506DDCF4B
:10203000082F082E000C110B8734A4F48134FCF413
:1020400080538A3008F02DCF8CE296E00E946C0815
:1020500024E0CC0FDD1F2A95E1F700531109C02BB6
:10206000D12B0DCF81360CF41CCF8736A4F08836E7
:1020700009F017CF8CE296E00E946C0812CF8CE238
:1020800096E00E946C0894E0CC0FDD1F9A95E1F772
:1020900007531109E4CF8CE296E00E946C0884E0BB
:1020A000CC0FDD1F8A95E1F707551109D8CF0E94A3
:1020B000170D80931F068650893F08F026CD60E1FA
:1020C00070E090E080E00E94640C95E0ECCD0E940E
:1020D000170D90931A0680931906885E9340813BF2
:1020E000964360F060E170E090E080E00E94640C54
:1020F00088EE93E090931A06809319068091190652
:1021000090911A0688519C4F90931C0680931B0651
:10211000FCCCDF91CF911F910F91FF90EF90DF905A
:10212000CF90BF90AF909F908F907F906F905F9077
:102130004F903F902F900895EF92FF920F931F932F
:10214000CF93DF93CDB7DEB7C058D1090FB6F8945F
:10215000DEBF0FBECDBFFC012081222309F43BC0AE
:102160008C01E62FF0E0EE0FFF1FCE0101967C01FF
:102170004A3061F5E15FF84F659174910E94462CF9
:10218000F80101900020E9F7AF0141505109F70132
:1021900001900020E9F73197EE19FF09401B510B20
:1021A000E417F50708F4AF01B701C8010E946631D2
:1021B000C058DF4F0FB6F894DEBF0FBECDBFDF9122
:1021C000CF911F910F91FF90EF900895E150F94F3B
:1021D00065917491D3CF8FEF9FEFEACF60E470E009
:1021E00082E297E00E94780AE0916707F091680721
:1021F000309709F0099549E060E082E297E00E949B
:102200009C10892B41F042E257E067E087E00E9492
:102210002B0A80E0089581E00895EF92FF920F93DA
:102220001F93CF93DF9300D000D01F92CDB7DEB7BE
:10223000082F162F7A010E9488041A3008F489C0EA
:10224000812F6AE00E940730292F412F491B550B2F
:10225000CA016AE070E00E942730605D6983205DFA
:102260002A831B8280911B0790911C07009721F005
:1022700068E078E00E949E0621E041E060E080E0B6
:102280000E94A20A21E041E068E080E00E94A20AE8
:1022900021E041E061E181E00E94A20A21E041E009
:1022A000602F83E00E94A20ABE016F5F7F4F809182
:1022B000190790911A070E9477096BEE71E08091DF
:1022C000190790911A070E947709B70180911907A1
:1022D00090911A070E94770961E671E080911907D1
:1022E00090911A070E947709E0916507F0916607BF
:1022F000309709F0099580911B0790911C07009772
:1023000039F0412F50E070E060E02AE00E947F0940
:1023100080911B0790911C07009721F066E078E000
:102320000E949E0680911B0790911C07009719F050
:10233000B7010E94170A0E94EE100F900F900F90A5
:102340000F900F90DF91CF911F910F91FF90EF9021
:10235000089580E3810F89831A8284CFBF92CF9240
:10236000DF92EF92FF920F931F93CF93DF9300D0F2
:1023700000D000D0CDB7DEB7B82E6A017B0120E0D7
:1023800030E048EC52E4CB01B6010E94752F1816DC
:102390000CF44EC020E030E0A901C701B6010E9454
:1023A000992C87FD45C020E030E0A901C701B601A6
:1023B0000E94992C8E010F5F1F4F811126C08FEF55
:1023C0008F938F9382EB91E09F938F931F930F9343
:1023D0000E947A310F900F900F900F900F900F90F6
:1023E000A8016B2D80E00E940D1126960FB6F8947F
:1023F000DEBF0FBECDBFDF91CF911F910F91FF9038
:10240000EF90DF90CF90BF900895A701960160E014
:1024100070E088EC92E40E94D42E20E030E040E8A6
:102420005FE30E94672E0E94462F7F936F93CACF6F
:1024300080E0DBCFEF92FF920F931F93CF93DF9358
:10244000CDB7DEB72B970FB6F894DEBF0FBECDBF6A
:10245000F82EE62E5F934F933F932F938EE791E0F4
:102460009F938F938E010F5F1F4F1F930F930E94B7
:102470007A31A8016E2D8F2D0E940D110FB6F894A0
:10248000DEBF0FBECDBF2B960FB6F894DEBF0FBEDA
:10249000CDBFDF91CF911F910F91FF90EF900895E5
:1024A0001F93CF93DF93182FEB010E948804809134
:1024B0001B0790911C07009721F061E771E00E94D3
:1024C000290A21E041E060E080E00E94A20A21E0C8
:1024D00041E068E080E00E94A20A21E041E0612F33
:1024E00081E00E94A20ABE018091190790911A070B
:1024F0000E94770961E671E08091190790911A07AF
:102500000E947709E0916507F0916607309709F01E
:10251000099580911B0790911C07009719F0BE0147
:102520000E94170ADF91CF911F910C94EE10CF9368
:10253000DF9300D0CDB7DEB720911D0730911E0785
:10254000215031099CE02230310508F49AE0981BB3
:1025500080E3890F89831A82BE016F5F7F4F87E016
:102560000E9450120F900F90DF91CF9108950F931A
:102570001F93CF93DF93CDB7DEB72F970FB6F894A5
:10258000DEBF0FBECDBF7F936F935F934F931F92BC
:102590008F938BE791E09F938F938E010F5F1F4F77
:1025A0001F930F930E947A31B80180E10E9450126C
:1025B0000FB6F894DEBF0FBECDBF2F960FB6F894BE
:1025C000DEBF0FBECDBFDF91CF911F910F91089558
:1025D0000F931F93CF93DF93D0E007E4882339F064
:1025E000DFE1D80FDD0FDD0FDD0F07E00D0F1FE37B
:1025F000180FC0E01C1721F00C17D0F0CD17C0F059
:1026000042E851E06C2F83E00E940D1145E851E053
:102610006C2F81E0CF3380F0CF5FC83459F763E986
:1026200071E086E0DF91CF911F910F910C945012D1
:1026300049E851E06C2F83E00E940D11EDCF8F929D
:102640009F92AF92BF92CF92DF92EF92FF921F9331
:10265000CF93DF93CDB7DEB72A970FB6F894DEBFDE
:102660000FBECDBFE0911D07F0911E07E730F105C9
:1026700008F0F4C1E25CFC4E0C943B304513A5130A
:10268000A513BE130F146014BB1448E056EE63ED9F
:1026900073E383E00E94B7124DE851E061E081E00E
:1026A0000E940D1160E6C62E65EED62E6EEAE62E6D
:1026B00063E3F62E10E07EE7A72E71E0B72ECE0181
:1026C00001964C011330C0F1FF92EF92DF92CF924E
:1026D000BF92AF929F928F920E947A31A401612F94
:1026E00082E00E940D1141E951E0612F81E00E94DA
:1026F0000D1127E833E140E050E0612F80E00E94B7
:102700001A1242E851E0612F83E00E940D1190E41B
:10271000C90E9DE0D91E93E0E91EF11C0FB6F89496
:10272000DEBF0FBECDBF1F5F183061F665E971E0F7
:1027300086E00E9450120BC02BE231E040E050E0F6
:10274000612F80E00E941A12EECF0E94E81267E922
:1027500071E08AE00E9450122A960FB6F894DEBF0C
:102760000FBECDBFDF91CF911F91FF90EF90DF9013
:10277000CF90BF90AF909F908F90089569E871E0DF
:1027800088E00E94501240E05AEE66E077E382E073
:102790000E94B71240E8C42E4AE9D42E44EFE42E3A
:1027A00046E3F42E10E05EE7A52E51E0B52ECE01F3
:1027B00001964C012FE133E040E050E0612F80E0D2
:1027C0000E941A12123038F1FF92EF92DF92CF92EC
:1027D000BF92AF929F928F920E947A31A401612F93
:1027E00082E00E940D1141E951E0612F81E00E94D9
:1027F0000D1142E851E0612F83E00E940D1190E439
:10280000C90E9DE0D91E93E0E91EF11C0FB6F894A5
:10281000DEBF0FBECDBF1F5F183061F687CF69E8FE
:1028200071E088E00E94501240E05AEE66E077E3E3
:1028300082E00E94B71220E8C22E24E0D22E2DE0C2
:10284000E22E27E3F22E10E03EE7A32E31E0B32E76
:10285000CE0101964C012FE133E040E050E0612FC2
:1028600080E00E941A12123038F1FF92EF92DF924C
:10287000CF92BF92AF929F928F920E947A31A40121
:10288000612F82E00E940D1141E951E0612F81E04A
:102890000E940D1142E851E0612F83E00E940D116A
:1028A00090E4C90E9DE0D91E93E0E91EF11C0FB61D
:1028B000F894DEBF0FBECDBF1F5F183061F636CF74
:1028C00069E871E088E00E94501240EE53E163EF46
:1028D00076E380E00E94B71249E851E060E083E0CF
:1028E0000E940D1149E851E061E083E00E940D1162
:1028F00080E2C82E81E2D82E86EFE82E86E3F82EFD
:1029000012E09EE7892E91E0992ECE0101965C019E
:102910002FE133E040E050E0612F80E00E941A1286
:10292000FF92EF92DF92CF929F928F92BF92AF92DF
:102930000E947A31A501612F82E00E940D1141E9C8
:1029400051E0612F81E00E940D1142E851E0612FBA
:1029500083E00E940D1190E4C90E9DE0D91E93E022
:10296000E91EF11C1F5F0FB6F894DEBF0FBECDBF8E
:10297000193071F6DBCE69E871E088E00E945012F0
:1029800040EF50E866EA73E382E00E94B71249E83C
:1029900051E060E083E00E940D1149E851E061E000
:1029A00083E00E940D1149E851E062E083E00E945B
:1029B0000D112BE231E040E050E063E080E00E9446
:1029C0001A1224E63EEC4FE853E363E082E00E94F3
:1029D0001A1241E951E063E081E00E940D1142E8E2
:1029E00051E063E083E00E940D112BE231E040E012
:1029F00050E064E080E00E941A1224E83EEF44E9CF
:102A000053E364E082E00E941A1241E951E064E07D
:102A100081E00E940D1142E851E064E083E00E94F1
:102A20000D112BE231E040E050E065E080E00E94D3
:102A30001A1228EE31EE4DE953E365E082E00E9480
:102A40001A1241E951E065E081E00E940D1142E86F
:102A500051E065E083E00E940D1168CE50E040E057
:102A600061E087E00E942B0A72CE0F931F93CF93F1
:102A7000C82F0E94480B0E94880420E041E060E0DB
:102A800085E00E94A20A20E040E062E085E00E942A
:102A9000A20A61E671E08091190790911A070E94DD
:102AA000770960E470E082E297E00E94780A0E9471
:102AB000480B00E410E022E237E047E065E085E003
:102AC0000E94160B6BEE71E082E297E00E944D2CA3
:102AD000BC0189E00E94C20B6BEE71E090E080E0E7
:102AE0000E944D2CBC0188E00E94C20B22E237E01C
:102AF00049E065E085E00E94160B62E277E081E044
:102B00000E94501262E871E0C11102C069E871E0F0
:102B100088E00E945012C093210710926D07CF9158
:102B20001F910F910895CF93C82F0E948804809120
:102B30001B0790911C07009721F066EE77E00E943A
:102B40009E0621E041E060E080E00E94A20A21E0D0
:102B500041E063E080E00E94A20A21E040E06C2FA7
:102B600082E00E94A20A61E671E0809119079091CB
:102B70001A070E947709E0916507F0916607309780
:102B800009F0099580911B0790911C07009711F09F
:102B90000E947309CF910C94EE109F92AF92BF9256
:102BA000CF92DF92EF92FF920F931F93CF93DF9319
:102BB000CDB7DEB7EDB6FEB649E065E082E297E05C
:102BC0000E949C10892B09F07FC090E0912C2AE094
:102BD000E92FF0E0E75DF84F8081382F3F7D41F02D
:102BE000929E800D112430ED932E980E9F5FF0CFB2
:102BF00083E643E0891528F099E042E0991508F052
:102C000041E050E0465D584FFA0101900020E9F79D
:102C100031978F01041B150B1695079501151105AA
:102C200009F44BC0CDB6DEB68DB79EB7801B910BB5
:102C30000FB6F8949EBF0FBE8DBF01965C01FA01DE
:102C4000DC019C01200F311F808181340CF08753FF
:102C5000982F9295907F818181346CF18753890FF1
:102C60008D9332962A173B0779F763E088E00E943C
:102C70002B0AE0916307F0916407309721F0492D0A
:102C8000B801C50109950FB6F894DEBE0FBECDBEE2
:102C900082E090E00FB6F894FEBE0FBEEDBEDF916D
:102CA000CF911F910F91FF90EF90DF90CF90BF9049
:102CB000AF909F9008958053D2CF50E040E062E003
:102CC00088E00E942B0AE4CF42E257E062E087E00E
:102CD0000E942B0A86EF9FEFDDCFAF92BF92CF927B
:102CE000DF92EF92FF920F931F93CF93DF9300D069
:102CF00000D0CDB7DEB77C016B01142FB22E01E0FE
:102D000002270E94880480911B0790911C0700975E
:102D100021F06CED77E00E949E0621E041E060E04A
:102D200080E00E94A20A21E041E062E080E00E948F
:102D3000A20A21E041E0602F84E00E94A20A14363A
:102D400008F483C0812F64E60E940730292F30E009
:102D5000812F90E0821B930B64E670E00E94273085
:102D6000605D6983812F6AE00E940730492FC901A5
:102D7000841B91096AE070E00E942730605D6A83DD
:102D8000405D4B831C82BE016F5F7F4F80911907AE
:102D900090911A070E9477096BEE71E080911907F4
:102DA00090911A070E94290A80911B0790911C0795
:102DB000009729F0BE016F5F7F4F0E94290A809122
:102DC0001B0790911C07009721F06AED77E00E94A5
:102DD0009E06A12C0A2D10E08091190790911A07E8
:102DE0000C151D0508F051C00E0D1F1DF801408186
:102DF000403108F043C066E671E00E94290AF801FC
:102E0000408150E070E060E020E1809119079091EE
:102E10001A070E947F0980911B0790911C07009759
:102E200021F068ED77E00E949E0680911B0790914B
:102E30001C07009741F0F801408150E070E060E02D
:102E400020E10E947F09A394C5CF1A3098F0812F0A
:102E50006AE00E940730292F412F491B550BCA01F8
:102E60006AE070E00E942730605D6983205D2A83FC
:102E70001B8289CF105D19831A8285CF50E070E0E4
:102E800060E020E10E947F09D0CF61E671E00E94FE
:102E90007709E0916507F0916607309709F0099589
:102EA00080911B0790911C07009711F00E947309F5
:102EB0000E94EE10811117C050E040E063E087E00F
:102EC0000E942B0A8FEF9FEF0F900F900F900F90A3
:102ED000DF91CF911F910F91FF90EF90DF90CF90F6
:102EE000BF90AF90089560E470E082E297E00E94A6
:102EF000780A892B29F4BB2019F083E090E0E4CF15
:102F0000E0916907F0916A07309709F0099549E067
:102F100064E082E297E00E949C10892B49F450E023
:102F200040E062E088E00E942B0A81E090E0CCCF94
:102F300049E066E082E297E00E949C10892BE9F26A
:102F4000809122078823C9F20E94CD15BDCFCF9270
:102F5000DF92EF92FF921F93CF93DF931F92CDB733
:102F6000DEB7162F20916B0730916C0721153105C4
:102F700039F02230310509F44AC083E090E00BC0FB
:102F8000411112C01982262F482F61E070E0CE0156
:102F900001960E946D160F90DF91CF911F91FF90C7
:102FA000EF90DF90CF90089560E470E082E297E0C8
:102FB0000E94780A892B11F41111DFCFE091690783
:102FC000F0916A07309709F0099549E064E082E2E0
:102FD00097E00E949C10892B49F450E040E062E0A9
:102FE00088E00E942B0A81E090E0D5CF49E066E0BE
:102FF00082E297E00E949C10892B09F4BECF809159
:103000002207882309F4B9CF0E94CD15C4CFE2E28C
:10301000F7E080E4DF011D928A95E9F780911907B6
:1030200090911A07FC01C480D580E680F78044E6C1
:1030300050E060E070E0448355836683778340E42A
:1030400050E062E277E00E948A05892B39F0E09136
:103050006907F0916A07309709F00995E09119071F
:10306000F0911A07C482D582E682F782C8CFEF9228
:10307000FF920F931F93CF93DF93FC01C089D189F7
:10308000E684F78480912107918190FFC3C00E945C
:103090003515F70101900020E9F7CF0141978E1512
:1030A0009F0549F4FE0101900020E9F7CF018197C7
:1030B0008C179D0741F050E040E068E087E00E94F7
:1030C0002B0A80E09AC000E410E022E237E049E0F9
:1030D00065E085E00E94160B62E277E081E00E94E5
:1030E0005012B70182E00E945012BE0185E00E949A
:1030F000501280911B0790911C07009721F061E707
:1031000071E00E94290A21E041E060E080E00E9435
:10311000A20A21E040E064E080E00E94A20A61E6A9
:1031200071E08091190790911A070E947709E09148
:103130006507F0916607309709F0099580911B07A4
:1031400090911C07009711F00E9473090E94EE10E5
:10315000809120070E941F1380911F070E949712E1
:1031600080E00E94931550E040E064E08823B9F0CD
:1031700060E470E082E297E00E94780A49E063E050
:1031800082E297E00E949C10892B99F042E257E07E
:1031900065E087E00E942B0A50E040E069E087E0AC
:1031A0000E942B0A60E177E280E090E00E944C05EB
:1031B000D7CF00E410E022E237E043E063E080E0B4
:1031C0000E94160B42E257E061E088E00E942B0A61
:1031D00022E237E040E061E080E00E94160B62E20C
:1031E00077E08AE00E94C20B10926C0710926B0786
:1031F00069E971E084E10E94501291E0892790E032
:10320000919581959109DF91CF911F910F91FF9039
:10321000EF900895048515850E943515F8010190F9
:103220000020E9F7CF0109978017910709F043CFF4
:10323000FE0101900020E9F7CF0181978C179D07CF
:1032400009F039CFF70101900020E9F7CF0181970C
:103250008E159F0509F02FCFB80180E00E94501213
:10326000B70183E00E945012BE0184E00E94501218
:10327000809120070E941F1380911F070E949712C0
:1032800081E00E94931560E470E082E297E00E9482
:10329000780A49E063E082E297E00E949C10892B63
:1032A00051F042E257E066E087E00E942B0A50E0CE
:1032B00040E069E003CF00E410E022E237E043E0C1
:1032C00063E080E00E94160B42E257E060E088E095
:1032D0000E942B0A81E091CF2F923F924F925F92F2
:1032E0006F927F928F929F92AF92BF92CF92DF9216
:1032F000EF92FF920F931F93CF93DF93CDB7DEB77B
:1033000065970FB6F894DEBF0FBECDBF6C017D8B05
:103310006C8BDC018C918250FE0131967F0110E0B4
:1033200000E0833008F0D3C1109280001092810039
:103330001092820081E080936F0000E410E022E2AE
:1033400037E046E161E080E00E94160B892B09F42A
:1033500096C04AE050E070E060E082E297E00E94B0
:103360000D2BB62EA72E482E392E00E410E022E2B7
:1033700037E047E161E080E00E94160B892B09F4F9
:1033800083C04AE050E070E060E082E297E00E9493
:103390000D2B962E772E682E592E0E94A20469E8D6
:1033A00071E088E00E945012282E10922107D60169
:1033B00011968C9182FD6DC0C6010E943718892B31
:1033C00009F467C06BE971E08CE296E00E94170A8D
:1033D00088248A94982CD60119962D903C9080EEE2
:1033E00091ECABE6B3E3888B998BAA8BBB8BB12CAA
:1033F000A12C11E0412C512C32010A2D4114510411
:103400006104710409F0C5C01F9295E09F931F925B
:103410001F92AFEAB1E0BF93AF93FF92EF920E9489
:103420007A31A701602F81E00E940D110FB6F89448
:10343000DEBF0FBECDBF182340E050E0BA0120FE32
:10344000D0C0D60111968C9140E050E068EC72E457
:1034500081FDC7C0F60181859285F3E0AF16B10406
:103460000CF0A7C18770992760E0009709F4AAC003
:103470009C0121503109822393236F5FF6CFB12C39
:10348000A12C412C312C71CF912C712C612C512C01
:1034900084CFF601818101E0022510E080FD35C076
:1034A00083E38F9383ED8F9386EE8F9388E08F93E2
:1034B0001F921F928BE791E09F938F93FF92EF9261
:1034C0000E947A31B70180E10E945012082FD60184
:1034D00016968C9116978F9315968C918F9382EBFD
:1034E00091E09F938F93FF92EF920E947A31B70100
:1034F0008CE00E9450120823022181E0082710E08E
:103500000FB6F894DEBF0FBECDBF3F924F92AF9281
:10351000BF924EE7A42E41E0B42EBF92AF92FF922D
:10352000EF920E947A31B70186E10E945012482E34
:103530005F926F927F929F92BF92AF92FF92EF92B3
:103540000E947A31B70187E10E945012842191E0F4
:103550008927082B88249924801A910A0FB6F89499
:10356000DEBF0FBECDBF37CF98E0A916B10424F05F
:10357000488859886A887B8888899989AA89BB89FB
:10358000805C924FAC4FBF4F888B998BAA8BBB8BC3
:1035900034CF7F926F925F924F928EE791E09F932C
:1035A0008F93FF92EF920E947A31A7016A2D82E0F9
:1035B0000E940D110FB6F894DEBF0FBECDBF811172
:1035C00023CF39CF70E090E080E00E949E2C9B01D9
:1035D000AC0160E070E080E89FE30E94D42EAB0174
:1035E000BC01802F0E94AE1118233FEFA31AB30A2B
:1035F0003694279480E1A816B10409F0B5CF01E014
:103600001027012F10E0119501951109082919299A
:10361000D6011B964C901B971996AD90BC90512CDF
:103620009924939422E0622E712CC5018170992710
:10363000F301E81BF90BEE0FFF1FE150F94F659105
:103640007491C7010E94462CA701652D83E00E945A
:103650000D119822B694A7945394B0E15B12E5CF74
:10366000EFEF4E12CDC01F9285E08F9382EB91E079
:103670009F938F93FF92EF920E947A31B70187E078
:103680000E945012B82E62E871E088E00E94501249
:1036900091E0909321078B2198220F900F900F902B
:1036A0000F900F900F9081E09826892D90E09195D2
:1036B00081959109082B192BD60114968C918111B3
:1036C00006C087E090E09093AE028093AD02F601D1
:1036D00082811F928F9382EB91E09F938F93FF9251
:1036E000EF920E947A31B70186E00E94501291E079
:1036F000892790E0919581959109082B192B2C89A8
:103700003D893093AA022093A9021092A40210923C
:10371000A302D9011C920F900F900F900F900F9061
:103720000F900115110509F5F6018081833009F02C
:103730007EC082E79EE1909364078093630788E4EC
:1037400099E090936607809365078FE199E09093E5
:103750006807809367078BEC98E090936A078093E3
:103760006907D092AC02C092AB020E947E056093C2
:10377000A5027093A6028093A7029093A802C801A5
:1037800065960FB6F894DEBF0FBECDBFDF91CF9127
:103790001F910F91FF90EF90DF90CF90BF90AF906F
:1037A0009F908F907F906F905F904F903F902F9061
:1037B000089528E0A216B10464F4887F992760E098
:1037C000009791F09C0121503109822393236F5F70
:1037D000F7CF882760E0009739F09C01215031092C
:1037E000822393236F5FF7CF70E090E080E00E9428
:1037F0009E2C9B01AC016DEC7CEC8CEC9DE3EDCE42
:1038000069E871E088E00E945012B82E10922107FA
:103810001F924F9282EB91E09F938F93FF92EF92D2
:103820000E947A31B70187E00E94501234CF82EEB5
:103830009DE181CF6091A9027091AA028091AB02B3
:103840009091AC020E946C198091AB029091AC02F5
:103850000E94371890E080E008950F931F93CF9354
:10386000DF938330910574F48130910534F4D0E016
:10387000C0E0019641F189E19CEFDF91CF911F916A
:103880000F9108950397B9F700E410E022E237E0C2
:1038900045E161E080E00E94160B892B29F140E1AF
:1038A00050E070E060E082E297E00E94F6296F70DD
:1038B000772781E090E0672B11F490E080E091950C
:1038C00081959109DACF4AE06C2F82E297E00E945D
:1038D0009C10892B21F02196CD30D105A1F78827A6
:1038E00099278C1B9D0BC9CF8FEF9FEFC6CF80917F
:1038F000AD029091AE02892BA9F482E090E0909302
:10390000AE028093AD0240E060E081E00E94A71724
:103910000E942D1C8F3F2FEF92073CF4873F2FEF23
:10392000920711F490E080E008950297D9F7809112
:10393000A3029091A40208958091AD029091AE02ED
:10394000892B19F090E080E00895E091AB02F091AE
:10395000AC02818183FD21C083E090E09093AE02B0
:103960008093AD0241E061E082E00E94A7170E94CF
:103970002D1C8F3F980731F31092AE021092AD02CA
:1039800001970297C8F5E091A902F091AA028081FF
:103990008F5F808382E090E0089582E090E09093D2
:1039A000AE028093AD0240E060E083E00E94A71782
:1039B0000E942D1C2091A3023091A40297FF1FC0EA
:1039C0002F3F4FEF340794F48F3F980739F484E08A
:1039D00090E09093AE028093AD02B4CF099619F4B3
:1039E00085E090E0F6CF83E090E0F3CF2F5F3F4F8C
:1039F0003093A4022093A3028FEF9FEF08952F5FCF
:103A00003F4F3093A4022093A302E091A902F091CA
:103A1000AA0240814F5F4083029739F41092AE02B0
:103A20001092AD0281E090E00895832F8095880F79
:103A3000880B082E000C990B08958F929F92AF92DD
:103A4000BF92CF92DF92EF92FF920F931F93CF938B
:103A5000DF93CDB7DEB7C65FD1090FB6F894DEBFEE
:103A60000FBECDBF8091AD029091AE02892B19F0AF
:103A700090E080E05FC081E090E09093AE028093A0
:103A8000AD02E091AB02F091AC02118113FB112762
:103A900010F91E5F838190E0B0E0A0E0CD50DF4FD1
:103AA00088839983AA83BB83C35FD040CE010196EC
:103AB0006C017C01812C912C54018A94E091AB0221
:103AC000F091AC02638170E0C7018C199D098617E3
:103AD00097076CF4CE018D509F4F0E945229A5018B
:103AE00094010E94EF2DF70161937F01E7CF2181BF
:103AF00001E023FB222720F92027412FC6010E9445
:103B00006D160E942D1C97FF34C08F3F980731F52A
:103B100024E030E03093AE022093AD02E091AB029E
:103B2000F091AC0221812695269526952027822F9B
:103B3000817090E0CA50DF4F0FB6F894DEBF0FBE21
:103B4000CDBFDF91CF911F910F91FF90EF90DF904C
:103B5000CF90BF90AF909F908F900895873F2FEFA9
:103B6000920741F785E090E09093AE028093AD021A
:103B70007FCF1092A4021092A30224E030E0309391
:103B8000AE022093AD02E091AB02F091AC02248131
:103B9000222309F46DCF218123FD03C001970297F1
:103BA00070F4E091A902F091AA0280818F5F808376
:103BB0001092AE021092AD0282E090E0BBCF81E0A5
:103BC00090E0B8CFAF92BF92CF92DF92EF92FF9288
:103BD0000F931F93CF93DF9320910C0130910D0130
:103BE000232B09F474C0C42F8B01D92FB82E65EB99
:103BF00071E08CE296E00E94290A4C2F50E070E0C0
:103C000060E02AE08CE296E00E947F096CEB71E0B4
:103C10008CE296E00E94290AA80170E060E02AE0A8
:103C20008CE296E00E947F0964EC71E08CE296E001
:103C30000E94290A90E080E00E94070A6CEC71E083
:103C40008CE296E00E94290AC801880F991F0E9401
:103C500041307C01892B49F1CB2CDD2ED0E0C0E036
:103C600036EDA32E31E0B32E0C171D07F1F020978F
:103C700021F08AE390E00E947331F60181916F0197
:103C80001F928F93BF92AF92CE01880F991F8E0D16
:103C90009F1D9F938F930E947A3121960F900F90D2
:103CA0000F900F900F900F90DFCFB7018CE296E04E
:103CB0000E94170AC701DF91CF911F910F91FF90CA
:103CC000EF90DF90CF90BF90AF900C94DD30DF91FC
:103CD000CF911F910F91FF90EF90DF90CF90BF9009
:103CE000AF900895FF920F931F93CF93DF936130AE
:103CF000710531F4FC0120812235A9F02335E9F06A
:103D0000F42EEB018C016BED71E08CE296E00E94E9
:103D1000290A4F2DBE01C801DF91CF911F910F914C
:103D2000FF900C94E21D7093A4026093A302DF91B4
:103D3000CF911F910F91FF90089582E090E09093B2
:103D4000A4028093A302F3CF1F920F920FB60F929B
:103D500011242F933F938F939F93AF93BF938091A1
:103D6000FE059091FF05A0910006B09101063091EB
:103D7000FD0523E0230F2D3758F50196A11DB11D38
:103D80002093FD058093FE059093FF05A093000608
:103D9000B09301068091020690910306A09104065B
:103DA000B09105060196A11DB11D80930206909366
:103DB0000306A0930406B0930506BF91AF919F91AF
:103DC0008F913F912F910F900FBE0F901F901895DC
:103DD00026E8230F0296A11DB11DD2CF1F920F928C
:103DE0000FB60F9211242F933F934F935F936F93CE
:103DF0007F938F939F93AF93BF93CF93EF93FF9353
:103E0000C091E1008091E100837F8093E100C3FFD6
:103E10000FC01092E90081E08093EB001092EC005B
:103E200082E38093ED001092130688E08093F00007
:103E3000C2FF1AC00E94F70480919802882341F0C3
:103E400080919802815080939802811101C05D9AFF
:103E500080911206882341F0809112068150809350
:103E60001206811101C0289AC4FF23C08091E2008C
:103E70008E7E81608093E2008091E1008F7E80934E
:103E8000E100809199028E7E806180939902FF917A
:103E9000EF91CF91BF91AF919F918F917F916F9152
:103EA0005F914F913F912F910F900FBE0F901F90F8
:103EB0001895C0FFECCF8091E2008E7E80618093E8
:103EC000E2008091E1008E7E8093E1008091990272
:103ED0008E7E8160DACF1F920F920FB60F9211245F
:103EE000CF92DF92EF92FF920F931F932F933F9306
:103EF0004F935F936F937F938F939F93AF93BF93F2
:103F0000EF93FF93CF93DF93CDB7DEB76C97DEBF10
:103F1000CDBF1092E9008091E80083FF25C068E0E2
:103F2000CE0145960E94910682EF8093E8008D892C
:103F300087FF39C09091E80090FFFCCF982F9076D2
:103F400009F034C19E894F89588D2F89F88C9111C1
:103F500031C0803861F580919A028093F10010920F
:103F6000F1008EEF8093E8006C960FB6F894DEBFF8
:103F70000FBECDBFDF91CF91FF91EF91BF91AF9178
:103F80009F918F917F916F915F914F913F912F9171
:103F90001F910F91FF90EF90DF90CF900F900FBE89
:103FA0000F901F9018959EEF9093E800C7CF109246
:103FB000F100D5CF913059F48111D3CF4130510563
:103FC00081F680919A028D7F80939A02CACF9330B6
:103FD00049F48111C6CF4130510519F680919A02FA
:103FE0008260F2CF953041F48091E80080FFFCCFF1
:103FF00020682093E300B5CF963009F0A9C00B8D5F
:104000001C8D22E01092E900109296021092950207
:10401000F2122EC010929402109293020E94600637
:104020001F8299E09983FA8291E09E8390EA9887B3
:104030009AEF99872091950230919602275F3F4F22
:104040003C832B838D831092E9001092960210928C
:104050009502109394020093930249E050E0BE0150
:104060006F5F7F4F80E00E943A060E94600679CF22
:1040700010939402009393020E941305DC011296A0
:104080000D911C910115110509F451C1D801ED9153
:10409000FC910480F581E02DBE016B5E7F4FC8016D
:1040A0000995009709F03EC1F80100851185EACF16
:1040B000F3E0FF120EC08F89882309F440C08230DC
:1040C00061F440E860E187EC97E00E940706811107
:1040D00048CF81E28093EB0047CF813029F440E85C
:1040E0006BE08BEB97E0F1CF833099F70E941305DB
:1040F000DC011296ED90FC908E010F5F1F4F68015E
:10410000E114F10479F0D701ED91FC910680F7817B
:10411000E02DB801C7010995080F111DF701E084D2
:10412000F184EECFD8011C92F60101900020E9F74E
:104130003197BF016C197D0940E0C601C6CF65EA21
:1041400077E0FB01449150E080E80E943A0609CFF5
:10415000973009F4BECF983021F481E08093F100CC
:1041600000CF993009F0FDCE837009F0B2CFEFE1B6
:10417000F1E081E031E096E32191222371F0809318
:10418000E9003093EB00DF0111972C912093EC00B4
:104190009093ED008F5F873079F78EE78093EA0088
:1041A0001092EA008F8980931306DBCE8B8D9C8D55
:1041B0001092E90010929602109295029093940248
:1041C00080939302898D811192C08E899D89913A45
:1041D00049F4813209F07DCF47E050E064E071E0BE
:1041E00080E0B3CF913209F074CF833269F48F89C4
:1041F000988DB0E0A0E08093000190930101A0931E
:104200000201B0930301ADCE803269F48091E800E1
:1042100082FFFCCF67E084E091E00E9491068BEF83
:104220008093E8009ECE823209F09BCE8F898093E6
:104230000B01EEEFFFE7859194918B3F9C4D51F17F
:10424000E0E0F8E08091040190910501A091060161
:10425000B0910701803B9440A105B105F1F4809134
:104260000B0180FD1AC0EE3F8AE0F80789F587E769
:1042700097E791838083809160008093970288E123
:104280009BE00FB6F894A895809360000FBE9093C2
:10429000600067CEEEEFFAE0D5CF8081918187375D
:1042A000974709F05ECEA895809160008861809361
:1042B00060008091970280936000EE3F2AE0F20751
:1042C00089F08091FE0A9091FF0A9183808349CE04
:1042D000808191818737980751F29093FF0A8093EC
:1042E000FE0AC5CF1092FF0A1092FE0A3ACE0E9433
:1042F0001305DC0112960D911C910115110509F4AD
:10430000E8CED801ED91FC910190F081E02DBE0145
:104310006B5E7F4FC8010995811123CEF80100859E
:104320001185EBCF181619060CF41BCED2CEF1E096
:10433000FF12BECE69EA77E004CF1F920F920FB64C
:104340000F9211242F933F934F935F936F937F931B
:104350008F939F93AF93BF93EF93FF938CE796E078
:104360000E944007FF91EF91BF91AF919F918F9174
:104370007F916F915F914F913F912F910F900FBE61
:104380000F901F9018951F920F920FB60F92112445
:104390002F938F939F93EF93FF93E0918C06F0916F
:1043A0008D068081E0919206F091930682FD1BC0FC
:1043B0009081809195068F5F8F732091960682176A
:1043C00041F0E0919506F0E0E458F94F958F809325
:1043D0009506FF91EF919F918F912F910F900FBEB6
:1043E0000F901F9018958081F4CF1F920F920FB6F7
:1043F0000F9211248F939F9380919102909192023A
:10440000019690939202809391029F918F910F90C9
:104410000FBE0F901F901895CF93DF93ECE7F6E057
:104420001382128281E491E0918380838DEC90E08D
:10443000958784878CEC90E09787868788EC90E05E
:10444000918B808B89EC90E0938B828B8AEC90E04F
:10445000958B848B8EEC90E0978B868B118E128ED1
:10446000138E148ECCE2D6E01B821A8288EE93E083
:10447000A0E0B0E08C839D83AE83BF8383E591E0B1
:10448000998388838FEF9FEF9D878C87A4E1B6E0A7
:104490001C9212961C92129781E013968C9313979C
:1044A00085E014968C93149788EE93E016969C936F
:1044B0008E93159780ED97E018969C938E9317979F
:1044C0008FEF1B968C931B971D961C921E921C9728
:1044D0001F961C921E921E9751961C921E925097E8
:1044E00053961C921E92529755961C921E92549768
:1044F00057961C921E925697A9E1B7E01092620758
:1045000010926C0710926B0710926D071396DC9354
:10451000CE9312971196FC93EE9340E157E260E040
:1045200070E0448355836683778315961C921E92B0
:10453000149787E016968C93169782E017968C93C3
:10454000179718961C9210926407109263071092A6
:10455000660710926507109268071092670710921D
:104560006A0710926907DF91CF910895CF93DF9387
:10457000CDB7DEB7C658D1090FB6F894DEBF0FBE6F
:10458000CDBF789484B5826084BD84B5816084BDDC
:1045900085B5826085BD85B5816085BD80916E00E1
:1045A000816080936E001092810080918100826012
:1045B000809381008091810081608093810080914F
:1045C0008000816080938000809191008260809360
:1045D0009100809191008160809391008091900082
:1045E0008160809390008091C10084608093C100BD
:1045F0008091C10082608093C1008091C100816080
:104600008093C1008091C30081608093C30080913A
:10461000C00082608093C0008091C200816080935E
:10462000C20080917A00846080937A0080917A0041
:10463000826080937A0080917A00816080937A0012
:1046400080917A00806880937A001092130610920D
:104650009A02109299028091D70081608093D700CE
:1046600080EA8093D80089B5806189BD89B5826070
:1046700089BD09B400FEFDCF61E070E080E090E00C
:104680000E944C058091D8008F7C80618093D80077
:104690008091E000807F8093E0008091E1008E7E39
:1046A0008093E1008DE08093E200559A209A8FEF8D
:1046B0009FEF909339068093380607EE13E0F09051
:1046C0000B016AE070E080E090E00E944C05F11080
:1046D00006C00115110519F001501109F0CF109312
:1046E0000D0100930C01479A64EF71E080E090E0C7
:1046F0000E944C0547986CE070E090E080E00E94DA
:10470000640C0E94F70448EEC42E43E0D42EE12C42
:10471000F12C8091FB059091FC05892B69F40E9496
:10472000580D80E090E0892BA1F30E942C0788238C
:1047300081F30E940000EDCFE091AD02F091AE0256
:104740003197E730F10508F0B2C0E755FC4D0C9405
:104750003B30B023C723B0230424172491247624AC
:104760000E947E0560939F027093A0028093A10235
:104770009093A20284E690E0A0E0B0E080939B02D8
:1047800090939C02A0939D02B0939E028AC00E94C7
:104790007E0560939F027093A0028093A102909384
:1047A000A2020E94010DE82FA091A902B091AA02D5
:1047B00058968C930091AB021091AC02D8011396DD
:1047C0002C91235F30E0A0E4BFE10E94582EE63038
:1047D00008F0E5E0B4E0EB9FF0011124EB5DFE4F43
:1047E00020813181428153810E94CD2DF801878142
:1047F0009085B0E0A0E088519C4FAF4FBF4F820F33
:10480000931FA41FB51FBACF0E947E0560939F021D
:104810007093A0028093A1029093A202E091AB0258
:10482000F091AC0285819681B0E0A0E0A7CF0E9414
:104830007E0560939F027093A0028093A1029093E3
:10484000A2020E94010DE82FA091A902B091AA0234
:1048500058968C93A091AB02B091AC0213962C9118
:10486000235F30E0A0E4BFE10E94582EE63008F05C
:10487000E5E024E0E29FF0011124EB5DFE4F208192
:104880003181428153810E94CD2DA3E6B0E00E9488
:104890000E2E60939B0270939C0280939D029093D6
:1048A0009E0286E090E09093AE028093AD02E0918C
:1048B0000E01F0910F013196E231F10508F076C456
:1048C000EC59FB4D0C943B30C328B224DA24F52478
:1048D00042257425D628D628D628D628D628D628E4
:1048E000D628D628D628D628B6259E280E947E050A
:1048F00060939F027093A0028093A1029093A20202
:1049000069837A838B839C83CE0101960E943F2921
:10491000E091AB02F091AC02678170850E94133088
:1049200083CF0E947E0500919F021091A0022091EA
:10493000A1023091A202601B710B820B930B0091BC
:104940009B0210919C0220919D0230919E020617BD
:1049500017072807390708F0AACF1092AE02109265
:10496000AD02A5CF1092FA051092F905E1EBF2E045
:1049700088E493E0DF019C011D9221503040E1F773
:10498000BF0184E196E00E946C19892B39F08FEF0A
:104990009FEF90930F0180930E01D4C081E090E0CF
:1049A00090930F0180930E0170E060E090E080E052
:1049B0000E94640C8091FB059091FC0502971CF00D
:1049C00084E090E0E6CFE0912606F091270630974C
:1049D00031F00995009709F4B5C097FDD8CF82E072
:1049E00090E090930F0180930E011092B00210920C
:1049F000AF028091FB059091FC0502970CF7E091C6
:104A00002806F0912906309789F1099597FF22C071
:104A100081E090E09093B0028093AF0284E090E058
:104A200090930F0180930E018091F9059091FA0502
:104A300001969093FA058093F9056AE070E090E0A2
:104A400080E00E94640C62E070E090E080E00E94F0
:104A5000640C78C0009709F475C0029739F484E0BB
:104A600090E090930F0180930E01EDCF61E070E034
:104A700090E080E00E94640C83E090E090930F014E
:104A800080930E018091FB059091FC0502970CF03C
:104A900097CFE0912A06F0912B06309709F452C087
:104AA000099597FF4CC081E090E09093B00280930D
:104AB000AF0268E070E090E080E00E94640C84E067
:104AC00090E090930F0180930E0162E070E090E01F
:104AD00080E00E94640C8091F9059091FA0501969E
:104AE0009093FA058093F905809118062091AF0202
:104AF0003091B002232B41F02091F9053091FA0555
:104B00008217130609F014F4811124C08091FB056B
:104B10009091FC050297F4F48091AD029091AE0261
:104B2000892B81F41092A4021092A30282E090E0FB
:104B300090930F0180930E0163E070E086CF892B84
:104B400009F0BDCF8CE296E00E948A08892B09F417
:104B5000E8CDE5CD8FE090E090930F0180930E01BA
:104B600064E070E090E080E00E94640CA090A902F4
:104B7000B090AA0210E000E0A114B10409F441C011
:104B80000E947E050091A5021091A6022091A70225
:104B90003091A802601B710B820B930BD50111960B
:104BA0006D937D938D939C931497E091AB02F0915C
:104BB000AC028081813009F0C9C1A185B28520EAAB
:104BC00036E841E050E00E940E2ED50151966D93DB
:104BD0007D938D939C935497868557968C93579786
:104BE000838558968C935897828159968C9300911F
:104BF000A9021091AA02C8014C969093AA02809330
:104C0000A90280910C0190910D01892B09F4B3C088
:104C100070E060E081E090E00E94640CF801478958
:104C200050E070E060E02AE08CE296E00E947F09AC
:104C300061E070E081E090E00E94640CD801589639
:104C40004C9150E070E060E02AE08CE296E00E9437
:104C50007F0962E070E081E090E00E94640CF8015E
:104C60004589568970E060E02AE08CE296E00E9477
:104C70007F098CE296E00E94730963E070E081E0B6
:104C800090E00E94640CD80151964D915D916D9118
:104C90007C9154972AE08CE296E00E947F0964E0C0
:104CA00070E081E090E00E94640CF801818D082E94
:104CB000000C990B0E94070A65E070E081E090E02B
:104CC0000E94640CD8015A964C9150E070E060E06C
:104CD0002AE08CE296E00E947F0966E070E081E0C5
:104CE00090E00E94640CF801838D082E000C990B53
:104CF0000E94EA0967E070E081E090E00E94640CA5
:104D0000D80115966D917D918D919C9118970E9477
:104D1000FF0B6AE070E081E090E00E94640C68E0C4
:104D200070E081E090E00E94640CF801618572857A
:104D3000838594850E94FF0B6AE070E081E090E03B
:104D40000E94640C69E070E081E090E00E94640CD5
:104D5000D8011D966D917D918D919C9150970E94E7
:104D6000FF0B6AE070E081E090E00E94640C8CE24E
:104D700096E00E947309B5E00D3D1B0738F4809161
:104D8000FB059091FC0502970CF4CCC167E070E044
:104D900090E080E00E94640C015B1240159507953D
:104DA0001595079527EB3DE6029FC001039F900DE7
:104DB000129F900D1124FC013196CF57DF4FF983DC
:104DC000E883C158D0406DE070E090E080E00E9440
:104DD000640C22242394312C01EB12E0CF57DF4FD7
:104DE00088819981C158D0408F31910514F08EE1AE
:104DF00090E0821593050CF4CCC1D8011D968D91DD
:104E00009D910D90BC91A02DCD57DF4F8883998344
:104E1000AA83BB83C358D040F80141845284638481
:104E2000748485809680A780B084838D282F082E77
:104E3000000C330B3F938F93828D1F928F93818D44
:104E4000282F082E000C330B3F938F93808D1F92D9
:104E50008F9384898F9383898F9382898F9381899C
:104E60008F9386898F9385898F93CD57DF4F888164
:104E70009981C358D04068EE73E00E9413309F932D
:104E80008F93CD57DF4F688179818A819B81C35889
:104E9000D040A70196010E94CD2D5F934F933F9381
:104EA0002F93C20168EE73E00E9413309F938F939B
:104EB000C301B201A70196010E94CD2D5F934F93CC
:104EC0003F932F93C40168EE73E00E9413309F93C9
:104ED0008F93C501B401A70196010E94CD2D5F9368
:104EE0004F933F932F93D8018C911F928F931496D9
:104EF0008C9114978F9313968C9113978F9312968E
:104F00008C9112978F9311968C918F933F922F9241
:104F1000EDEEF1E0FF93EF9381E090E08C0F9D1FA9
:104F20009F938F930E947A310FB6F894DEBF0FBE25
:104F3000CDBFBE016F5F7F4F8CE296E00E94170AE3
:104F4000BFEF2B1A3B0A045E1F4F48CF00E410E06E
:104F500022E237E048E066E086E00E94160B892BEB
:104F600009F4CDC082E297E00E94162CF501618B16
:104F7000728B838B948BA090A902B090AA02D5016A
:104F800056961C921E92559710E000E02AE0722E71
:104F90003AE0832E912C802F0A3008F4B4C0672D9C
:104FA0000E940730292FC801821B9109B4010E9479
:104FB0002730605D6983205D2A831B8220E041E009
:104FC00060E080E00E94A20A20E041E069E080E029
:104FD0000E94A20A20E041E061E181E00E94A20A71
:104FE00020E041E063E083E00E94A20ABE016F5F1F
:104FF0007F4F8091190790911A070E94770961E607
:1050000071E08091190790911A070E94770960E476
:1050100070E082E297E00E94780A892B49F049E02B
:1050200061E082E297E00E949C1021E0892B09F068
:1050300020E0822F90E0002E02C0880F991F0A9472
:10504000E2F7F50125893689822B932B968B858B88
:105050000F5F1F4F0031110509F09DCFA090A902ED
:10506000B090AA0200E410E022E237E046E066E0F9
:1050700086E00E94160B039708F44AC084E297E08A
:105080000E94F82BD50157968C930E94010DA09099
:10509000A902B090AA02F501808F00E410E022E29C
:1050A00037E04BE066E086E00E94160B892B91F119
:1050B00082E297E00E94F82BD50159968C930E94CA
:1050C000E90C1816190644F50E94E90CA090A902F3
:1050D000B090AA02F501828F00E410E022E237E0EE
:1050E0004DE066E086E00E94160B892BC9F082E253
:1050F00097E00E94F82BD5015B968C9378CD60E009
:1051000070E0CB0133CF80E3800F89831A8256CFC2
:1051100080E0B8CF80E8D0CF0E94E90C8195D6CF4F
:1051200080E8E9CF80E190E090930F0180930E0139
:1051300065E070E090E080E00E94640C8091AD0238
:105140009091AE02892B09F0FDCC8091AB02909139
:10515000AC02DC0111962C9125FF0DC066E070E0D9
:1051600090E080E00E94640C1092FA051092F9051C
:1051700082E090E00ECC6091A9027091AA020E9498
:105180006C19892B59F36AE070E090E080E00E948E
:10519000640CE4E1F0E0F0930F01E0930E0182E093
:1051A00090E09093FC058093FB05CCCC8091FB05AF
:1051B0009091FC058130910529F410920F01109215
:1051C0000E01C0CC892B09F4BDCC69E070E090E001
:1051D00080E00E94640C6CE070E090E080E00E944F
:1051E000640C1092FC051092FB05ACCC8F929F9240
:1051F000AF92BF92CF92DF92EF92FF92CF93DF9365
:10520000EC01688179818A819B8161157105810535
:10521000910521F464E279ED8BE597E02DE133EF20
:1052200041E050E00E94EF2D49015A019B01AC0181
:10523000A7EAB1E40E940E2E6B017C01ACEEB4EF44
:10524000A50194010E941C2EDC01CB018C0D9D1D3B
:10525000AE1DBF1DB7FF03C00197A109B0488883E9
:105260009983AA83BB839F77DF91CF91FF90EF90C3
:10527000DF90CF90BF90AF909F908F9008950E9445
:10528000F628089580E191E00E94F6280895B0E0A4
:10529000A0E08093100190931101A0931201B093AC
:1052A000130108958F929F92AF92BF92CF92DF9297
:1052B000EF92FF92CF93DF93EC01688179818A812D
:1052C0009B81611571058105910521F464E279EDF9
:1052D0008BE597E02DE133EF41E050E00E94EF2DA8
:1052E00049015A019B01AC01A7EAB1E40E940E2ECC
:1052F0006B017C01ACEEB4EFA50194010E941C2E61
:10530000C60ED71EE81EF91EF7FE06C081E0C81AB9
:10531000D108E10880E8F80AC882D982EA82FB82D3
:10532000C701B6019F77DF91CF91FF90EF90DF909B
:10533000CF90BF90AF909F908F9008958F929F9243
:10534000AF92BF92CF92DF92EF92FF9260911401E1
:1053500070911501809116019091170161157105E9
:105360008105910521F464E279ED8BE597E02DE16B
:1053700033EF41E050E00E94EF2D49015A019B01BB
:10538000AC01A7EAB1E40E940E2E6B017C01ACEEE9
:10539000B4EFA50194010E941C2EC60ED71EE81E74
:1053A000F91EF7FE06C081E0C81AD108E10880E8BE
:1053B000F80AC0921401D0921501E0921601F09201
:1053C0001701C701B6019F77FF90EF90DF90CF9054
:1053D000BF90AF909F908F90089560931401709349
:1053E000150180931601909317010895B0E0A0E095
:1053F000ECEFF9E20C94222E5C016B017A0161154D
:10540000710519F0FB0191838083E114F10451F0DF
:10541000C7010297839730F040E030E020E090E051
:1054200072C05E01E5012196F5011081812F90E0A7
:105430000E943D2C892BA9F71D3201F52196F5011B
:10544000118101E0E114F10409F4DAC0F0E1EF1692
:10545000F10409F082C0103359F488818F7D8835BA
:1054600009F076C0198122960260F0E1EF2EF12C4E
:10547000812C912CA12C88E0B82E8CC01B3221F4F9
:10548000E5012296F501118100E0DCCFEAE0EE169D
:10549000F10409F4BBC0F0E1EF16F10409F06DC0AE
:1054A000E7CF78E0E72EF12C812C912CA12C60E144
:1054B000B62E70C03FE9310F3A3128F439EA332E65
:1054C00080C021E09AC0302F3170C114D10431F076
:1054D000222309F12197F601D183C08327FF21C040
:1054E00060E070E080E090E8311104C06FEF7FEF82
:1054F0008FEF9FE722E230E030937107209370072F
:10550000462F372F282F642F732F822FCDB7DEB76A
:10551000E1E10C943E2E01FF04C02297F601D183F5
:10552000C083332341F090958095709561957F4FAE
:105530008F4F9F4FE5CF97FFE3CF82E290E09093AC
:105540007107809370076FEF7FEF8FEF9FE7D8CFE2
:1055500010E3E114F10409F4A4CF28E0E216F10409
:1055600009F4A2CF0CF092CF812C912CA12CE0E475
:10557000BE2E82E0E816F10469F060E070E080E0A1
:1055800090E897010F2C000C440B550B0E94CD2D79
:1055900049015A0120E060E070E0CB0127010F2CA7
:1055A000000C66087708FE0150ED352E310E39E00B
:1055B000331540F43FEB310F3A3108F07BCF49EC23
:1055C000342E310E3E141F040CF07DCF27FD15C084
:1055D00086169706A806B90678F0A30192010E94E4
:1055E000BD2D630D711D811D911D613071058105FA
:1055F00020E8920708F465CF2FEF21961081D3CFD2
:10560000103309F42ACF2AE0E22EF12C9CEC892EEB
:10561000982CA82C9CE0B92EBDCFB0E0A0E0E3E12F
:10562000FBE20C94222E5C016B017A01611571057D
:1056300019F0FB0191838083E114F10449F0C70163
:105640000297839728F060E070E0CB019CC05E0178
:10565000E5012196F5011081812F90E00E943D2CFB
:10566000892BA9F71D3209F056C02196F501118149
:1056700001E0E114F10409F4AEC0F0E1EF16F10429
:1056800009F08EC0103341F488818F7D883509F090
:1056900083C0198122960260E0E1EE2EF12C88246D
:1056A0008A94982CA82CFFE0BF2E20E060E070E0E8
:1056B000CB0127010F2C000C66087708FE0150ED86
:1056C000352E310E39E0331538F43FEB310F3A31D6
:1056D000A0F549EC342E310E3E141F04BCF52F3FCB
:1056E000B9F086169706A806B90670F1A3019201D3
:1056F0000E94BD2D232D30E050E040E0620F731F6B
:10570000841F951F6217730784079507E8F021E04F
:1057100021961081D3CF1B3221F4E5012296F501A9
:10572000118100E0A6CF78E0E72EF12C88248A943E
:10573000982CA82C6FE1B62EB8CF3FE9310F3A3143
:1057400028F439EA332EC7CF2FEFE2CFC114D104AA
:1057500031F02223E9F02197F601D183C08300FFC5
:1057600007C090958095709561957F4F8F4F9F4FA3
:105770002F3F49F482E290E0909371078093700785
:105780006FEF7FEFCB01CDB7DEB7E1E10C943E2E9A
:1057900001FFE5CF2297E0CF10E3E114F10419F205
:1057A0003AE0E316F104E9F080E1E816F10409F4C7
:1057B00073CFE8E0EE16F10409F4B8CF6FEF7FEF96
:1057C000CB0197010F2C000C440B550B0E94CD2DE3
:1057D00049015A016ACF103309F456CF9AE0E92EF5
:1057E000F12C89E9882E982CA82C89E1B82E5DCF60
:1057F000FC0188279927E89421912032E9F3293088
:1058000010F02E30C8F32B3241F02D3239F4689469
:1058100004C00E948E2C820F911D219120532A30AA
:10582000C0F31EF4909581959F4F08951F93FC013E
:1058300099278827BC01E89411911032E9F31930B7
:1058400010F01E30C8F31B3251F01D3249F4689439
:1058500006C00E94792C610F711D811D911D11914F
:1058600010531A30B0F33EF4909580957095619581
:105870007F4F8F4F9F4F1F91089591110C94962C3D
:10588000803219F089508550C8F70895FB01DC017A
:1058900005900D920020E1F708954EE657E00E9432
:1058A000522C0895FA01A191B081009719F4109734
:1058B000E1F0CD01DC01CD010D90002011F4C0011B
:1058C00013C0FB012191222319F02015D9F7F3CF42
:1058D000FB012191201519F41E92119606C0222376
:1058E000C1F70D900020A1F7D001FA01A193B08378
:1058F0000895592F482F372F262F660F771F881F9F
:10590000991F660F771F881F991F620F731F841FCF
:10591000951F660F771F881F991F08957AE0979F3C
:10592000902D879F802D910D112408959927882708
:1059300008950E94DB2C08F481E00895E89409C0E2
:1059400097FB3EF490958095709561957F4F8F4FB2
:105950009F4F9923A9F0F92F96E9BB279395F695C8
:10596000879577956795B795F111F8CFFAF4BB0F46
:1059700011F460FF1BC06F5F7F4F8F4F9F4F16C0AA
:10598000882311F096E911C0772321F09EE8872F34
:10599000762F05C0662371F096E8862F70E060E0F0
:1059A0002AF09A95660F771F881FDAF7880F969569
:1059B000879597F90895990F0008550FAA0BE0E80D
:1059C000FEEF16161706E807F907C0F012161306C1
:1059D000E407F50798F0621B730B840B950B39F401
:1059E0000A2661F0232B242B252B21F408950A2667
:1059F00009F4A140A6958FEF811D811D08950E9495
:105A0000122D0C94832D0E94752D38F00E947C2D50
:105A100020F0952311F00C946C2D0C94722D112410
:105A20000C94B72D0E94942D70F3959FC1F3950FA0
:105A300050E0551F629FF001729FBB27F00DB11D12
:105A4000639FAA27F00DB11DAA1F649F6627B00DA2
:105A5000A11D661F829F2227B00DA11D621F739F8B
:105A6000B00DA11D621F839FA00D611D221F749F99
:105A70003327A00D611D231F849F600D211D822FE0
:105A8000762F6A2F11249F5750409AF0F1F0882307
:105A90004AF0EE0FFF1FBB1F661F771F881F915034
:105AA0005040A9F79E3F510580F00C946C2D0C944A
:105AB000B72D5F3FE4F3983ED4F3869577956795CD
:105AC000B795F795E7959F5FC1F7FE2B880F911D5E
:105AD0009695879597F9089597F99F6780E870E004
