:100000000C9456040C947E040C947E040C947E0490
:100010000C947E040C947E040C947E040C947E0458
:100020000C947E040C947E040C94551E0C94D21EE9
:100030000C947E040C947E040C947E040C947E0438
:100040000C947E040C947E040C947E040C947E0428
:100050000C945C210C947E040C947E040C940B1E76
:100060000C947E040C942A210C9404210C947E049C
:100070000C947E040C947E040C947E040C947E04F8
:100080000C947E040C947E040C947E040C947E04E8
:100090000C947E040C947E040C947E040C947E04D8
:1000A0000C947E040C947E040C947E0408000000E2
:1000B000BE922449123EABAAAA2ABECDCCCC4C3E5D
:1000C00000000080BEABAAAAAA3E00000000BF004C
:1000D0000000803F0000000000084178D3BB438748
:1000E000D1133D190E3CC3BD4282AD2B3E68EC825C
:1000F00076BED98FE1A93E4C80EFFFBE01C4FF7FE1
:100100003F0000000000524E32343833006D61630E
:100110005F657272006D61635F7278006D61635F2D
:1001200074785F6F6B006163636570746564006F02
:100130006666006F6E006572720073696C656E743E
:10014000006E6F745F6A6F696E6564006E6F5F66E4
:100150007265655F6368006D756C74696361737463
:100160005F6B6579735F6E6F745F736574006D614B
:10017000635F706175736564006B6579735F6E6F43
:10018000745F696E697400696E76616C69645F7032
:100190006172616D00696E76616C69645F6461743F
:1001A000615F6C656E00696E76616C69645F636C3B
:1001B000617373006672616D5F636F756E746572F3
:1001C0005F6572725F72656A6F696E5F6E656564A6
:1001D00065640062757379006F6B00206D73002099
:1001E00054696D6520546F74616C3A200020546925
:1001F0006D652052583A20002054696D652054588E
:100200003A200020736E7220002072737369200000
:1002100020707772205B64426D5D2000204672651D
:1002200071205B687A5D2000204D534B205B454E6A
:100230005D2000204452200020435220342F0045EE
:1002400072726F723A20556E6B6E6F776E20636FAD
:100250006D6D616E6420004572726F723A20496E56
:1002600076616C69642076616C7565210A0045725F
:10027000726F723A20746F6F206C6F6E67207661B8
:100280006C7565212052656D656D626572207573B0
:10029000696E67206820746F207465726D696E6185
:1002A0007465206865780A004572726F723A20742E
:1002B0006F6F206C6F6E672076616C7565210A0028
:1002C000526573756C74733A0A0053656C65637498
:1002D00020546573743A0A004552524F523A2074C2
:1002E000657374206D616C66756E6374696F6E0AF8
:1002F000004552524F523A20647572696E672073FE
:100300007461746520657865637574696F6E0A0041
:10031000646F6E650A00506F6C6C202D204E6F204C
:10032000726573706F6E73652066726F6D20736592
:10033000727665722E0A00456E6420746573740AC5
:100340000052657374617274202D20496E69740ABD
:100350000052657365740A004576616C7561746559
:100360000A0052657472790A0053746F70207465C4
:1003700073740A00506F6C6C20666F7220616E732C
:100380007765720A00537461727420746573740A1D
:1003900000446576416464723A20004D6F64656C78
:1003A0003A200056657273696F6E3A2000525820E9
:1003B00044656C617920323A200052582044656CC3
:1003C000617920313A200044617461205261746582
:1003D0003A200042616E643A2000446576455549F2
:1003E0003A20004170704555493A200042617474CA
:1003F0006572793A20004555493A2000736E7200C3
:100400007273736900707772007764740072786237
:1004100077006672657100736600637200637263D1
:100420000070726C656E00627700676574007365BA
:100430007400726164696F0070696E646967006E50
:10044000766D00687765756900766464007665721C
:10045000006765740073657400666163746F727918
:100460005245534554006572617365465700726585
:1004700073657400736C6565700073797300756ED5
:10048000636E6600636E66007374617475730066F4
:1004900072657100647272616E676500646379638E
:1004A0006C6500616270006F7461610073746174E7
:1004B000757300636C617373006D72676E006777AC
:1004C0006E62006368007278320061720062616E71
:1004D0006400727864656C61793200727864656C6E
:1004E000617931006C696E6B63686B00726574785A
:1004F00000626174006164720064720070777269F6
:100500006478006170706B657900617070736B6501
:1005100079006E776B736B657900617070657569D2
:10052000006465766575690064657661646472006F
:100530006765740073657400726573756D6500702E
:100540006175736500666F726365454E41424C4547
:100550000073617665006A6F696E00747800726579
:10056000736574006D6163005375636365737366CF
:10057000756C207472616E736D697373696F6E2E22
:100580002052656365697665642000537563636511
:10059000737366756C207472616E736D69737369C1
:1005A0006F6E004A6F696E20616363657074656485
:1005B0002E205374617475733A2000506572736F06
:1005C0006E616C697A652061636365707465642E21
:1005D000205374617475733A20004E6F20726573F6
:1005E000706F6E73652066726F6D20524E206D6F56
:1005F00064756C652E00436865636B20796F757256
:1006000020636F7665726167652C206B6579732056
:10061000616E64206261636B656E642073746174E3
:1006200075732E004F6E65206F72206D6F7265209E
:100630006B65797320617265206F6620696E7661E3
:100640006C6964206C656E6774682E005265737007
:100650006F6E7365206973206E6F74204F4B3A2064
:1006600000506572736F6E616C697A65206E6F748D
:10067000206163636570746564004A6F696E206E03
:100680006F742061636365707465643A200053651C
:100690006E64206A6F696E20636F6D6D616E642099
:1006A0006661696C65640053656E6420636F6D6D8F
:1006B000616E64206661696C656400556E65787072
:1006C000656374656420726573706F6E73653A203C
:1006D00000496E76616C6964206672657175656E3D
:1006E000637920706C616E00496E76616C6964207C
:1006F000534600D80133012F0126011C0115010DBD
:10070000010601D801D301B401A601950187017941
:10071000016E0157014C0141013A013601380233A3
:100720000228021C02100209020302F801ED01DF97
:1007300001DB01850374036903620358035103411C
:1007400003370316031003F102D802CA02C002A83D
:10075000026E0257023F02080B000202020000096B
:10076000040000010202000005240010010524011C
:100770000101042402060524060001070581031077
:10078000004009040100020A0000000705020240BF
:100790000000070583024000000403090412010061
:1007A00002EF0201404123368000010102030141B2
:1007B000726475696E6F204C4C43004172647569B8
:1007C0006E6F204C656F6E6172646F0030002000A8
:1007D00053656E64696E673A200053656E64696E96
:1007E000673A2000F603EC03E303DA03D303C703FD
:1007F000BA03AD03A3039B039103200053656E640A
:10080000696E673A2000200032042E042A0427046F
:1008100021041D041A04170412040D04090405041C
:100820000004FC037A0474046E046604590455043D
:1008300051044D04490443043F04380484047E04F5
:100840009C0494048F048804A704A30428052105AC
:100850001A0512050A050305FC04F904F504F10460
:10086000EC04E404DB04D204CD04CA04C604C304CB
:10087000BE04B904B304AC0464055E055B0556050B
:10088000510545053F05380534053005BB05A30571
:100890008B056805E806D106BB06A7068E067A0614
:1008A00061064C062406F605DA05732111241FBEE5
:1008B000CFEFDAE0DEBFCDBF12E0A0E0B1E0E6E5C9
:1008C000F4E602C005900D92AA33B107D9F727E0EC
:1008D000AAE3B2E001C01D92A837B207E1F714E025
:1008E000C6E5D4E004C02197FE010E94492EC5351B
:1008F000D107C9F70E941D220C9429320C940000E4
:100900008091150790911607DC01ED91FC91008410
:10091000F185E02D0995892B61F080911507909163
:100920001607DC01ED91FC910284F385E02D099519
:10093000E7CF0895E8E7F6E0A089B18982E08C93DB
:10094000A089B1891C92A485B5851C92A685B7851E
:1009500080E18C93108EA489B58986E08C93A2895E
:10096000B3898C9180618C93A289B3898C918860C2
:100970008C93A289B3898C9180688C930288F389C7
:10098000E02D80818F7D80830895FC0180910F068A
:10099000882311F13FB7F89482E08093E900209119
:1009A000F200822F90E01816190614F481E090E00E
:1009B000882339F0289844E640930E064091F100D0
:1009C0004083222339F02091F200211103C02BE64D
:1009D0002093E8003FBF08958FEF9FEF089583E0D5
:1009E0008093E9008091F200882319F08AE38093D4
:1009F000E80008952FB7F89483E08093E900909180
:100A0000E800892F807295FF04C09091F20080E485
:100A1000891B2FBF08958091060681110DC082E0C9
:100A20008093020684E080930306109205061092DC
:100A3000040681E08093060682E096E008953FB7C1
:100A4000F8948091FE059091FF05A0910006B09169
:100A5000010626B5A89B05C02F3F19F00196A11DE0
:100A6000B11D3FBFBA2FA92F982F8827BC01CD01F8
:100A7000620F711D811D911D42E0660F771F881F57
:100A8000991F4A95D1F708958F929F92AF92BF9286
:100A9000CF92DF92EF92FF924B015C010E941F0503
:100AA0006B017C010E941F056C197D098E099F094D
:100AB000683E734081059105A8F321E0821A9108F0
:100AC000A108B10888EEC80E83E0D81EE11CF11C15
:100AD00081149104A104B10429F7FF90EF90DF90F5
:100AE000CF90BF90AF909F908F9008952FB7F894BC
:100AF0006091FA057091FB058091FC059091FD05D0
:100B00002FBF08958F929F92AF92BF92CF92DF92A4
:100B1000EF92FF920F931F93CF93DF93EC016A0143
:100B20007B0110E000E00E947605688779878A875C
:100B30009B87E881F9810284F385E02DCE01099538
:100B400097FF21C00E94760588849984AA84BB847B
:100B5000681979098A099B098C809D80AE80BF80C5
:100B6000681579058A059B0520F3C801DF91CF91AF
:100B70001F910F91FF90EF90DF90CF90BF90AF90BB
:100B80009F908F9008958A30910579F3F7018193B2
:100B90007F010F5F1F4FC016D10629F6E6CF0C94D8
:100BA000EF04409191025091920220918F02309176
:100BB000900242175307B4F49091E8009570E1F366
:100BC0009091E80092FD19C08093F100809191020C
:100BD0009091920201968F739927892B19F48EEFC9
:100BE0008093E800809191029091920201969093F7
:100BF00092028093910281E0089580E00895EF923F
:100C0000FF920F931F93CF93DF93F82E192FE62EA9
:100C1000042F81E0860F880F0E94D10583E00E9497
:100C2000D105CF2DD12FEC0EFD2EF11CCE15DF05F9
:100C3000B9F007FF13C0FE0184910E94D105182F5F
:100C400080E00E94D105812321968111EFCFDF91B1
:100C5000CF911F910F91FF90EF9008958881EDCF74
:100C600081E0F5CFDF92EF92FF920F931F93CF9326
:100C7000DF93D82E8A01EB017B01E40EF51ECE1521
:100C8000DF0559F0D7FE12C0FE0184910E94D10504
:100C900021968111F4CF0FEF1FEFC801DF91CF91A3
:100CA0001F910F91FF90EF90DF9008958881EECF14
:100CB0000F931F93CF93DF931F92CDB7DEB782E0E0
:100CC000898342E450E067E577E080E80E943206DD
:100CD0000E940B05DC0112960D911C910115110566
:100CE00089F0D801ED91FC910280F381E02DBE01E5
:100CF0006F5F7F4FC801099597FD04C0F80100851B
:100D00001185ECCF89810F90DF91CF911F910F91C9
:100D10000895615030F02091F100FC01208301968C
:100D2000F8CF289884E680930E060895EF92FF92FC
:100D30000F931F93CF93DF938C017B01D0E0C0E032
:100D4000F701EC0FFD1F6491662361F0D801ED916E
:100D5000FC910190F081E02DC8010995892B11F0DB
:100D60002196EECFCE01DF91CF911F910F91FF9091
:100D7000EF900895AF92BF92CF92DF92EF92FF92E1
:100D80000F931F93CF93DF936C017B018B01040FB3
:100D9000151FEB015E01AE18BF08C017D10759F04F
:100DA0006991D601ED91FC910190F081E02DC60191
:100DB0000995892B79F7C501DF91CF911F910F918B
:100DC000FF90EF90DF90CF90BF90AF900895FC011F
:100DD000538D448D252F30E0842F90E0821B930BA0
:100DE000541710F0CF96089501970895FC01918D46
:100DF000828D981761F0A28DAE0FBF2FB11D5D9649
:100E00008C91928D9F5F9F73928F90E008958FEFEA
:100E10009FEF0895FC01918D828D981731F0828D9E
:100E2000E80FF11D858D90E008958FEF9FEF0895F5
:100E3000FC01918D228D892F90E0805C9F4F821B59
:100E400091098F739927089588E796E00E94180703
:100E500021E0892B09F420E0822F089580E090E0C2
:100E6000892B29F00E94240781110C940000089519
:100E7000FC01A48DA80FB92FB11DA35ABF4F2C910F
:100E8000848D90E001968F739927848FA689B78906
:100E90002C93A089B1898C9182748C93938D848DCD
:100EA000981306C00288F389E02D80818F7D8083AE
:100EB0000895EF92FF920F931F93CF93DF93EC016E
:100EC00081E0888F9B8D8C8D981319C0E889F989F2
:100ED000808185FF14C09FB7F894EE89FF896083F5
:100EE000E889F9898081827480839FBF81E090E0E6
:100EF000DF91CF911F910F91FF90EF900895F62E03
:100F00000B8D10E00F5F1F4F0F731127E02E8C8D9C
:100F10008E110CC00FB607FCFACFE889F9898081E1
:100F200085FFF5CFCE010E943807F1CFEB8DEC0F96
:100F3000FD2FF11DE35AFF4FF0829FB7F8940B8FFE
:100F4000EA89FB8980818062CFCFCF93DF93EC0168
:100F5000888D8823B9F0AA89BB89E889F9898C91A1
:100F600085FD03C0808186FD0DC00FB607FCF7CF5D
:100F70008C9185FFF2CF808185FFEDCFCE010E945D
:100F80003807E9CFDF91CF9108958F929F92AF926A
:100F9000BF92CF92DF92EF92FF920F931F93CF9366
:100FA000DF936C017B018A0180910B01882309F496
:100FB0005CC080910F06882309F457C08091950288
:100FC00080FF05C08091E00082608093E000E8012E
:100FD000B12C8AEFA82E93E0892E2AE3922E209737
:100FE00011F4BB20D9F10E94FA0481110AC0AA941D
:100FF000AA20D9F161E070E080E090E00E94440511
:10100000EECF8C171D0611F00CF08C2F9FB7F894C3
:101010008092E9002091E80025FD02C09FBFDFCF4C
:10102000282F30E0C21BD30BF701815020F04191F3
:101030004093F100FACFE20EF31EBB2021F0909214
:10104000E800B12CEBCF8091E80085FDE7CF9092CE
:10105000E800BB24B394209709F3F3CF5D9884E6AE
:1010600080939402101611063CF081E090E0F601A6
:101070009383828310E000E0C801DF91CF911F913C
:101080000F91FF90EF90DF90CF90BF90AF909F9027
:101090008F900895CF93DF931F92CDB7DEB769830A
:1010A000DC01ED91FC910280F381E02D41E050E004
:1010B000BE016F5F7F4F09950F90DF91CF9108952B
:1010C0000E94FA0490E00895CF93DF931F92CDB76A
:1010D000DEB7FC018485958597FD08C02FEF3FEFB3
:1010E000358724870F90DF91CF910895CE01019627
:1010F0000E94C504019719F4898190E0F3CF8FEF26
:101100009FEFF0CF0F931F93CF93DF931F92CDB735
:10111000DEB78C01FC018485958597FF0BC0CE015D
:1011200001960E94C504019771F4898190E0F8014D
:1011300095878487F801848595850F90DF91CF91FD
:101140001F910F9108958FEF9FEFF1CFFC018485E0
:10115000958597FD0BC09FB7F89482E08093E900D6
:101160008091F2009FBF90E0019608959FB7F89498
:1011700082E08093E9008091F2009FBF90E00895A3
:1011800090E080E00895CF92DF92EF92FF92E0919D
:10119000A702F091A8022FB7F894409184005091D3
:1011A000850080918D0290918E02B0E0A0E0DC017C
:1011B0009927882770E060E0842B952BA62BB72B0E
:1011C0000497A109B1092FBF42E0880F991FAA1FF8
:1011D000BB1F4A95D1F785879687A787B08BE0918B
:1011E000A702F091A802C584D684E784F08885819F
:1011F0009681A781B085C81AD90AEA0AFB0AA0918C
:10120000A502B091A60215962D913C91A8EEB3E0EF
:101210000E94662CC61AD70AE80AF90AC186D28645
:10122000E386F486FF90EF90DF90CF900895E091F1
:10123000A702F091A8022FB7F89440918400509132
:10124000850080918D0290918E02B0E0A0E0DC01DB
:101250009927882770E060E0842B952BA62BB72B6D
:101260000497A109B1092FBF42E0880F991FAA1F57
:10127000BB1F4A95D1F785839683A783B0870895CE
:10128000E091A702F091A8021582168217821086BB
:101290001186128613861486158616861786108A7E
:1012A000109285001092840010928E0210928D028E
:1012B00083E0809381000895FB0101900020E9F70D
:1012C0003197AF01461B570BDC01ED91FC91028079
:1012D000F381E02D09946DE571E00C945C096115D2
:1012E000710511F00C945C0990E080E008958F92F4
:1012F0009F92AF92BF92EF92FF920F931F93CF9363
:10130000DF93CDB7DEB7A1970FB6F894DEBF0FBE5F
:10131000CDBF7C01FA01CB0119A2223008F42AE0EA
:101320008E010F5D1F4F822E912CB12CA12CBF017D
:10133000A50194010E94DB2BF901CA016A30ECF48B
:10134000605DD8016E938D01232B242B252B79F71B
:10135000BD01C7010E946F09A1960FB6F894DEBFC8
:101360000FBECDBFDF91CF911F910F91FF90EF90F6
:10137000BF90AF909F908F900895695CE2CFCF921D
:10138000DF92EF92FF92CF93DF936B017C016DE2CE
:1013900088E296E00E944A08EC0144275527BA01EA
:1013A0004C195D096E097F092AE088E296E00E94E7
:1013B00077098C0F9D1FDF91CF91FF90EF90DF9009
:1013C000CF900895CF93DF93AC01092E000C660BEC
:1013D000770B97FF0EC0CB01BA010E94BF09EC0149
:1013E00088E296E00E946B098C0F9D1FDF91CF91E0
:1013F00008952AE088E296E00E947709F0CFAC01D8
:10140000092E000C660B770B97FF04C0CB01BA01C5
:101410000C94BF092AE088E296E00C9477090F93B8
:101420001F93CF93DF93EC010E946F098C01CE01D3
:101430000E946B09800F911FDF91CF911F910F9137
:1014400008950C946F090F931F93CF93DF93CDB73B
:10145000DEB7C456D1090FB6F894DEBF0FBECDBFBC
:101460008A01E62FF0E0EE0FFF1F883059F1EC56AD
:10147000F74F65917491CE0101960E94542A809194
:10148000170790911807009701F1BE016F5F7F4F1A
:101490000E94210A01151105D1F080911707909142
:1014A0001807009719F0B8010E940F0ACC59DF4FB6
:1014B0000FB6F894DEBF0FBECDBFDF91CF911F9165
:1014C0000F910895E457F74FD4CF012B79F780910E
:1014D000170790911807009749F30E946B09E6CF10
:1014E000EF92FF921F93CF93DF93EC017B0114E007
:1014F000115079F0A701BE01809115079091160750
:101500000E9482050097A1F3C80FD91F2197188266
:101510000BC081E08093690750E040E06AE087E01B
:101520000E94230A90E080E0DF91CF911F91FF900D
:10153000EF9008950F931F93CF93DF93CDB7DEB74E
:10154000C456D1090FB6F894DEBF0FBECDBF042F2D
:10155000122FE62FF0E0EE0FFF1F833009F455C085
:1015600008F044C0813009F44AC0823009F44AC00E
:10157000E858F74F65917491CE0101960E94542A64
:10158000BE016F5F7F4F80911507909116070E94F3
:101590006F09002341F067EE71E08091150790918B
:1015A00016070E946F091123A9F0809117079091E7
:1015B0001807009729F0BE016F5F7F4F0E94210A34
:1015C0008091170790911807009721F066E078E066
:1015D0000E949606CC59DF4F0FB6F894DEBF0FBEBF
:1015E000CDBFDF91CF911F910F910895853099F074
:1015F00078F0863009F0BCCFE85FF74FBBCFE45BF3
:10160000F74FB8CFE85BF74FB5CFE05CF74FB2CFFD
:10161000E45CF74FAFCFEC5DF74FACCFDF92EF92CA
:10162000FF920F931F93CF93DF93D82EF62EE42EC5
:10163000E9010E94800420E041E060E08D2D0E94DD
:101640009A0A20E041E069E080E00E949A0A20E0E6
:1016500040E06E2D8F2D0E949A0A6DE571E0809119
:101660001507909116070E946F09B801CE01DF910E
:10167000CF911F910F91FF90EF90DF900C94700A23
:10168000CF93E0911507F091160780ED97E0A0E069
:10169000B0E084839583A683B783CBE090E080E0BD
:1016A000C15009F44EC0892B09F04BC064E670E0CC
:1016B00080E090E00E944405809115079091160704
:1016C000DC01ED91FC910190F081E02D60E0099545
:1016D0008091150790911607DC01ED91FC91019026
:1016E000F081E02D65E509956DE571E080911507C4
:1016F000909116070E946F0920E041E060E085E0CC
:101700000E949A0A20E041E066E085E00E949A0A81
:1017100020E040E067E085E00E949A0A6DE571E014
:1017200080911507909116070E946F0940E450E0E0
:101730006EE177E080911507909116070E9482056F
:10174000AFCF64E670E080E090E00E9444050E9424
:101750008004E0911507F091160780E197E2A0E080
:10176000B0E084839583A683B78381E080935E078E
:10177000CF9108950F931F93CF93DF93CDB7DEB72B
:10178000C456D1090FB6F894DEBF0FBECDBF8B0192
:10179000E82FF0E0EE0FFF1FEC51F84F65917491C8
:1017A000CE0101960E94542A809117079091180744
:1017B000009789F0BE016F5F7F4F0E94210A0115DB
:1017C000110549F08091170790911807009719F0BB
:1017D000B8010E940F0ACC59DF4F0FB6F894DEBF54
:1017E0000FBECDBFDF91CF911F910F9108954F9202
:1017F0005F926F927F928F929F92AF92BF92CF92A1
:10180000DF92EF92FF9228EE33E040E050E00E943A
:10181000DB2B49016B017C012AE0BA01A40188E2BB
:1018200096E00E94770960E671E088E296E00E9407
:10183000210A84E6882E912CA12CB12C9AE0492E05
:10184000512C612C712CC814D904EA04FB0478F4DF
:1018500062E671E088E296E00E94210AC501B401C7
:10186000A30192010E94DB2B49015A01ECCFC11464
:10187000D104E104F10499F02AE0B701A60188E25D
:1018800096E0FF90EF90DF90CF90BF90AF909F9049
:101890008F907F906F905F904F900C947709FF909E
:1018A000EF90DF90CF90BF90AF909F908F907F9000
:1018B0006F905F904F900895CF93DF93CDB7DEB7D1
:1018C000AE970FB6F894DEBF0FBECDBFFB01EE0F93
:1018D000FF1F0197C1F0ED5CF84F65917491CE0147
:1018E00001960E94542ABE016F5F7F4F88E296E006
:1018F0000E94210AAE960FB6F894DEBF0FBECDBF90
:10190000DF91CF910895E35EF84FE7CFCF92DF925A
:10191000EF92FF920F931F93CF93DF93EC016B0134
:1019200018827C0188E296E00E948208182F873492
:1019300034F5813424F480ED810F8A3030F588E26B
:1019400096E00E946408F70111937F018F010C1B40
:101950001D0BC016D10634F76FE070E090E080E018
:101960000E945C0CC00FD11F21971882DF91CF918C
:101970001F910F91FF90EF90DF90CF9008958136E7
:1019800024F08736E4F2883619F0F7011082EECFA2
:1019900088E296E00E946408F8CFAAE3B2E083E50B
:1019A000FD0111928A95E9F7E0E1F6E0B787A68795
:1019B0008BE592E0918B808B8CE792E09587848712
:1019C00008950F931F9300E410E02EE137E047E005
:1019D00061E080E00E940E0B892B39F08EE197E0E8
:1019E0000E94062A1F910F9108958FEFFBCF0F934E
:1019F0001F93CF93DF93D0E0C0E00AE088E296E047
:101A00000E948208182F8823E9F080ED810F8A3028
:101A1000C8F4BE0190E080E00E94AC2A0E94882DAC
:101A200020E030E040E850E40E94832D87FD10C0A4
:101A30006EE070E090E080E00E945C0C88E296E04E
:101A40000E946B09CE01DF91CF911F910F910895F4
:101A500088E296E00E9464080C9FC0010D9F900DE3
:101A60001124EC01E097C10FD11D17FDDA95C6CF07
:101A70002F923F924F925F926F927F928F929F929E
:101A8000AF92BF92CF92DF92EF92FF920F931F938C
:101A9000CF93DF933BEEE32E31E2F32E48E8C42EE2
:101AA0004CE1D42E5AE0A52E5CE1B52E65EE262E33
:101AB0006BE1362E78E8472E7BE1572EE0EC6E2E58
:101AC000E8E07E2E88248394912C88E296E00E94A0
:101AD000A608892B09F4FAC288E296E00E946408FD
:101AE000843509F413C1C4F5893409F416C1FCF432
:101AF0008A3059F38D3049F3C82F082E000CDD0BC6
:101B000090911006913009F091C1833609F47CC19F
:101B10000CF027C1823609F452C161E170E090E017
:101B200080E00E945C0CCE010E94E209CECF82359B
:101B300009F4C2C0833501F78091F7059091F8054B
:101B40008230910514F482E090E09093F805809340
:101B5000F70562E070E0BFC08E3609F4FDC07CF589
:101B60008C3609F493C08D3639F60E94F70C8093B9
:101B70001006853040F060E170E090E080E00E9467
:101B80005C0C109210060E94CD0C809111068B7F88
:101B90008093110690911006923009F455C030F5EB
:101BA0009130C1F110922306109222061092250660
:101BB00010922406109227061092260686CF8037B0
:101BC00009F454C0823709F097CF0E94F70C809334
:101BD0001406853608F479CF60E170E090E080E08B
:101BE0000E945C0CA5E0A09314066FCF9330C9F15E
:101BF0009430C1F610922306109222061092250608
:101C00001092240650922706409226068460809304
:101C100011065BCF10922306109222061092250621
:101C2000109224067092270660922606F0921A06F9
:101C3000E09219062AEF20931C0688E080931E0686
:101C40009CE090931B0641CF10922306109222062F
:101C5000D0922506C0922406B0922706A0922606AE
:101C600034CF3092230620922206F2CF0E94F70C46
:101C700080931206863008F428CF60E170E090E08F
:101C800080E00E945C0C109212061FCF0E94F70C9D
:101C900080931306833F08F418CF8091100682309A
:101CA00008F413CF60E170E090E080E00E945C0CEB
:101CB00081E08093130609CF80911006882309F4F0
:101CC00004CF813069F48091190690911A06892B0E
:101CD000C1F460E170E090E080E00E945C0CF5CE21
:101CE00080911C0690911D06892B99F380911E0608
:101CF00090911F06892B69F380912006909121060F
:101D0000E6CF9092F8058092F705DFCE64E671E0A9
:101D100088E296E00E940F0AD8CE80911C0690912E
:101D20001D06892B11F40E94CD0C0E949A0420916B
:101D30001C0630911D0601E210E049E065E085E0F7
:101D40000E940E0B60911C0670911D0661157105B5
:101D5000F9F66BE070E0BFCF10920D0110920C010C
:101D6000B4CE8636A9F0833709F0D7CE0E94F70C9F
:101D700080931B068750863008F4A7CE60E170E0A0
:101D800090E080E00E945C0C8CE080931B069DCE6E
:101D90000E94F70C90931A0680931906865B914275
:101DA0008734910508F491CE60E170E090E080E026
:101DB0000E945C0CF0921A06E092190686CE0E94F0
:101DC000F70C80931C068A3F09F47FCE8D3709F407
:101DD0007CCE8E3309F479CE893209F476CE843103
:101DE00009F473CE982F9F7E9F3009F46ECE8A300F
:101DF00009F46BCE60E170E090E080E00E945C0C42
:101E0000BAEFB0931C0661CE0E94F70C80931E06B9
:101E10008550843008F459CE60E170E090E080E0B5
:101E20000E945C0C28E020931E064FCE923008F4EE
:101E300074CE8E3409F47FC00CF058C0843409F499
:101E40009BC06CF5813489F1833409F066CED0E013
:101E5000C0E088E296E00E948208C115B0E1DB078D
:101E600008F4C3C0883609F4C0C06FE070E090E0A9
:101E700080E00E945C0CD0931A06C0931906CD2B0B
:101E800009F023CE60E170E090E080E00E945C0CFD
:101E90008FEF90E090931A068093190616CE853442
:101EA00009F48CC08B3409F038CE60E270E0809188
:101EB0002006909121060E94860CE0912006F09168
:101EC0002106DF010D900020E9F7CD0181978E17E3
:101ED0009F0709F4FACD60E170E090E080E00E9495
:101EE0005C0CE0912006F091210666C0843609F46E
:101EF000BBC04CF48136D9F0833609F00ECE809108
:101F00001106877F84CE853771F0883709F4BCC00D
:101F10008F3609F002CE8091110681608093110600
:101F20000E94CD0CD2CD80911106886070CE809138
:101F300011068E7FF3CF60E270E080911E069091D3
:101F40001F060E94860CA0911E06B0911F06FD017F
:101F500001900020E9F73197EA1BFB0BB09708F0DE
:101F6000B4CD60E170E090E080E00E945C0CE09114
:101F70001E06F0911F0620C068E070E080911C06EC
:101F800090911D060E94860CE0911C06F0911D06A2
:101F9000DF010D900020E9F7CD0109978E179F070B
:101FA00009F493CD60E170E090E080E00E945C0C69
:101FB000E0911C06F0911D06108287CD60E170E073
:101FC00080911E0690911F060E94860CE0911E06CD
:101FD000F0911F06DF010D900020E9F7CD01419738
:101FE0008E179F0709F471CDBCCF082F082E000C67
:101FF000110B8734A4F48134FCF480538A3008F048
:102000003ACF88E296E00E94640824E0CC0FDD1FFE
:102010002A95E1F700531109C02BD12B1ACF813635
:102020000CF429CF8736A4F0883609F024CF88E253
:1020300096E00E9464081FCF88E296E00E94640840
:1020400094E0CC0FDD1F9A95E1F707531109E4CF17
:1020500088E296E00E94640884E0CC0FDD1F8A9538
:10206000E1F707551109D8CF0E94F70C80931B06A2
:102070008650893F08F029CD60E170E090E080E073
:102080000E945C0C95E0DDCD0E94F70C9093160643
:1020900080931506885E9340813B964360F060E133
:1020A00070E090E080E00E945C0C88EE93E09093FA
:1020B0001606809315068091150690911606885194
:1020C0009C4F9093180680931706FFCCDF91CF9119
:1020D0001F910F91FF90EF90DF90CF90BF90AF9046
:1020E0009F908F907F906F905F904F903F902F9038
:1020F0000895EF92FF920F931F93CF93DF93CDB785
:10210000DEB7C058D1090FB6F894DEBF0FBECDBF01
:10211000FC012081222309F43BC08C01E62FF0E072
:10212000EE0FFF1FCE0101967C014A3061F5ED5F95
:10213000F84F659174910E94542AF8010190002093
:10214000E9F7AF0141505109F70101900020E9F78B
:102150003197EE19FF09401B510BE417F50708F4FE
:10216000AF01B701C8010E94742FC058DF4F0FB6EE
:10217000F894DEBF0FBECDBFDF91CF911F910F91BD
:10218000FF90EF900895ED50F94F65917491D3CF82
:102190008FEF9FEFEACF60E470E08EE197E00E945E
:1021A000700AE0916307F0916407309709F0099590
:1021B00049E060E08EE197E00E947910892B41F0C0
:1021C0004EE157E067E087E00E94230A80E008952F
:1021D00081E00895EF92FF920F931F93CF93DF93C7
:1021E00000D000D01F92CDB7DEB7082F162F7A018E
:1021F0000E9480041A3008F489C0812F6AE00E948E
:10220000152E292F412F491B550BCA016AE070E09A
:102210000E94352E605D6983205D2A831B82809138
:10222000170790911807009721F06CEF77E00E9454
:10223000960621E041E060E080E00E949A0A21E0F9
:1022400041E068E080E00E949A0A21E041E061E11B
:1022500081E00E949A0A21E041E0602F83E00E9421
:102260009A0ABE016F5F7F4F809115079091160704
:102270000E946F0967EE71E0809115079091160733
:102280000E946F09B70180911507909116070E946F
:102290006F096DE571E080911507909116070E9416
:1022A0006F09E0916107F0916207309709F0099595
:1022B0008091170790911807009739F0412F50E04F
:1022C00070E060E02AE00E94770980911707909102
:1022D0001807009721F06AEF77E00E949606809138
:1022E000170790911807009719F0B7010E940F0A7D
:1022F0000E94CB100F900F900F900F900F90DF91D6
:10230000CF911F910F91FF90EF90089580E3810F7F
:1023100089831A8284CFBF92CF92DF92EF92FF928D
:102320000F931F93CF93DF9300D000D000D0CDB791
:10233000DEB7B82E6A017B0120E030E048EC52E4C1
:10234000CB01B6010E94832D18160CF44EC020E07C
:1023500030E0A901C701B6010E94A72A87FD45C048
:1023600020E030E0A901C701B6010E94A72A8E0132
:102370000F5F1F4F811126C08FEF8F938F938EEACF
:1023800091E09F938F931F930F930E94882F0F903C
:102390000F900F900F900F900F90A8016B2D80E081
:1023A0000E94EA1026960FB6F894DEBF0FBECDBF8E
:1023B000DF91CF911F910F91FF90EF90DF90CF9021
:1023C000BF900895A701960160E070E088EC92E468
:1023D0000E94E22C20E030E040E85FE30E94752C90
:1023E0000E94542D7F936F93CACF80E0DBCFEF9292
:1023F000FF920F931F93CF93DF93CDB7DEB72B9749
:102400000FB6F894DEBF0FBECDBFF82EE62E5F9359
:102410004F933F932F938AE791E09F938F938E0181
:102420000F5F1F4F1F930F930E94882FA8016E2DDF
:102430008F2D0E94EA100FB6F894DEBF0FBECDBFFD
:102440002B960FB6F894DEBF0FBECDBFDF91CF91B4
:102450001F910F91FF90EF9008951F93CF93DF93FB
:10246000182FEB010E9480048091170790911807A4
:10247000009721F06DE671E00E94210A21E041E021
:1024800060E080E00E949A0A21E041E068E080E09C
:102490000E949A0A21E041E0612F81E00E949A0A9D
:1024A000BE0180911507909116070E946F096DE596
:1024B00071E080911507909116070E946F09E091D5
:1024C0006107F0916207309709F00995809117072D
:1024D00090911807009719F0BE010E940F0ADF9132
:1024E000CF911F910C94CB10CF93DF9300D0CDB739
:1024F000DEB72091190730911A07215031099CE06D
:102500002230310508F49AE0981B80E3890F898313
:102510001A82BE016F5F7F4F87E00E942D120F90DD
:102520000F90DF91CF9108950F931F93CF93DF9377
:10253000CDB7DEB72F970FB6F894DEBF0FBECDBF75
:102540007F936F935F934F931F928F9387E791E0F1
:102550009F938F938E010F5F1F4F1F930F930E94C6
:10256000882FB80180E10E942D120FB6F894DEBFCB
:102570000FBECDBF2F960FB6F894DEBF0FBECDBFF6
:10258000DF91CF911F910F9108950F931F93CF93D8
:10259000DF93D0E007E4882339F0DFE1D80FDD0FC7
:1025A000DD0FDD0F07E00D0F1FE3180FC0E01C1754
:1025B00021F00C17D0F0CD17C0F04EE751E06C2F92
:1025C00083E00E94EA1041E851E06C2F81E0CF33B4
:1025D00080F0CF5FC83459F76FE871E086E0DF9193
:1025E000CF911F910F910C942D1245E851E06C2F63
:1025F00083E00E94EA10EDCF8F929F92AF92BF923C
:10260000CF92DF92EF92FF921F93CF93DF93CDB7DC
:10261000DEB72A970FB6F894DEBF0FBECDBFE091AC
:102620001907F0911A07E730F10508F0F4C1E55EEB
:10263000FC4E0C94492E2213821382139B13EC132D
:102640003D14981448E056EE63ED73E383E00E9476
:10265000941249E851E061E081E00E94EA1060E6EE
:10266000C62E65EED62E6EEAE62E63E3F62E10E059
:102670007AE7A72E71E0B72ECE0101964C011330F8
:10268000C0F1FF92EF92DF92CF92BF92AF929F92F2
:102690008F920E94882FA401612F82E00E94EA108D
:1026A0004DE851E0612F81E00E94EA1027E833E114
:1026B00040E050E0612F80E00E94F7114EE751E0CA
:1026C000612F83E00E94EA1090E4C90E9DE0D91EBC
:1026D00093E0E91EF11C0FB6F894DEBF0FBECDBF2C
:1026E0001F5F183061F661E971E086E00E942D12EB
:1026F0000BC02BE231E040E050E0612F80E00E940F
:10270000F711EECF0E94C51263E971E08AE00E94E2
:102710002D122A960FB6F894DEBF0FBECDBFDF9103
:10272000CF911F91FF90EF90DF90CF90BF90AF902F
:102730009F908F90089565E871E088E00E942D12C7
:1027400040E05AEE66E077E382E00E94941240E8AF
:10275000C42E4AE9D42E44EFE42E46E3F42E10E0D2
:102760005AE7A52E51E0B52ECE0101964C012FE17E
:1027700033E040E050E0612F80E00E94F71112301A
:1027800038F1FF92EF92DF92CF92BF92AF929F9279
:102790008F920E94882FA401612F82E00E94EA108C
:1027A0004DE851E0612F81E00E94EA104EE751E0D0
:1027B000612F83E00E94EA1090E4C90E9DE0D91ECB
:1027C00093E0E91EF11C0FB6F894DEBF0FBECDBF3B
:1027D0001F5F183061F687CF65E871E088E00E94DE
:1027E0002D1240E05AEE66E077E382E00E949412F8
:1027F00020E8C22E24E0D22E2DE0E22E27E3F22E96
:1028000010E03AE7A32E31E0B32ECE0101964C0141
:102810002FE133E040E050E0612F80E00E94F711AB
:10282000123038F1FF92EF92DF92CF92BF92AF92C7
:102830009F928F920E94882FA401612F82E00E94B4
:10284000EA104DE851E0612F81E00E94EA104EE766
:1028500051E0612F83E00E94EA1090E4C90E9DE0F0
:10286000D91E93E0E91EF11C0FB6F894DEBF0FBE2F
:10287000CDBF1F5F183061F636CF65E871E088E0A4
:102880000E942D1240EE53E163EF76E380E00E9458
:10289000941245E851E060E083E00E94EA1045E8C8
:1028A00051E061E083E00E94EA1080E2C82E81E2FC
:1028B000D82E86EFE82E86E3F82E12E09AE7892ECE
:1028C00091E0992ECE0101965C012FE133E040E0CA
:1028D00050E0612F80E00E94F711FF92EF92DF92AB
:1028E000CF929F928F92BF92AF920E94882FA501A4
:1028F000612F82E00E94EA104DE851E0612F81E0F3
:102900000E94EA104EE751E0612F83E00E94EA1036
:1029100090E4C90E9DE0D91E93E0E91EF11C1F5FF3
:102920000FB6F894DEBF0FBECDBF193071F6DBCE07
:1029300065E871E088E00E942D1240EF50E866EAF9
:1029400073E382E00E94941245E851E060E083E086
:102950000E94EA1045E851E061E083E00E94EA103D
:1029600045E851E062E083E00E94EA102BE231E0AA
:1029700040E050E063E080E00E94F71124E63EEC86
:102980004FE853E363E082E00E94F7114DE851E025
:1029900063E081E00E94EA104EE751E063E083E0EB
:1029A0000E94EA102BE231E040E050E064E080E079
:1029B0000E94F71124E83EEF44E953E364E082E02B
:1029C0000E94F7114DE851E064E081E00E94EA10B6
:1029D0004EE751E064E083E00E94EA102BE231E030
:1029E00040E050E065E080E00E94F71128EE31EE13
:1029F0004DE953E365E082E00E94F7114DE851E0B4
:102A000065E081E00E94EA104EE751E065E083E076
:102A10000E94EA1068CE50E040E061E087E00E944A
:102A2000230A72CE0F931F93CF93C82F0E94400B9F
:102A30000E94800420E041E060E085E00E949A0A64
:102A400020E040E062E085E00E949A0A6DE571E0D6
:102A500080911507909116070E946F0960E470E05D
:102A60008EE197E00E94700A0E94400B00E410E0A3
:102A70002EE137E047E065E085E00E940E0B67EE4F
:102A800071E08EE197E00E945B2ABC0189E00E9420
:102A9000BA0B67EE71E090E080E00E945B2ABC0117
:102AA00088E00E94BA0B2EE137E049E065E085E05E
:102AB0000E940E0B6EE177E081E00E942D126EE71E
:102AC00071E0C11102C065E871E088E00E942D123A
:102AD000C0931D0710926907CF911F910F91089520
:102AE000CF93C82F0E9480048091170790911807F8
:102AF000009721F06AED77E00E94960621E041E020
:102B000060E080E00E949A0A21E041E063E080E01A
:102B10000E949A0A21E040E06C2F82E00E949A0A0B
:102B20006DE571E080911507909116070E946F097D
:102B3000E0916107F0916207309709F00995809163
:102B4000170790911807009711F00E946B09CF9119
:102B50000C94CB109F92AF92BF92CF92DF92EF92E4
:102B6000FF920F931F93CF93DF93CDB7DEB7EDB6F0
:102B7000FEB649E065E08EE197E00E947910892B6E
:102B800009F07FC090E0912C2AE0E92FF0E0EB5DA6
:102B9000F84F8081382F3F7D41F0929E800D1124A7
:102BA00030ED932E980E9F5FF0CF83E643E08915BA
:102BB00028F099E042E0991508F041E050E04A5DC4
:102BC000584FFA0101900020E9F731978F01041B5B
:102BD000150B169507950115110509F44BC0CDB6D7
:102BE000DEB68DB79EB7801B910B0FB6F8949EBFD3
:102BF0000FBE8DBF01965C01FA01DC019C01200F24
:102C0000311F808181340CF08753982F9295907FEB
:102C1000818181346CF18753890F8D9332962A1705
:102C20003B0779F763E088E00E94230AE0915F07A1
:102C3000F0916007309721F0492DB801C501099541
:102C40000FB6F894DEBE0FBECDBE82E090E00FB6A8
:102C5000F894FEBE0FBEEDBEDF91CF911F910F9194
:102C6000FF90EF90DF90CF90BF90AF909F9008952E
:102C70008053D2CF50E040E062E088E00E94230A17
:102C8000E4CF4EE157E062E087E00E94230A86EF3E
:102C90009FEFDDCFAF92BF92CF92DF92EF92FF9284
:102CA0000F931F93CF93DF9300D000D0CDB7DEB743
:102CB0007C016B01142FB22E01E002270E948004D8
:102CC0008091170790911807009721F060ED77E049
:102CD0000E94960621E041E060E080E00E949A0AAE
:102CE00021E041E062E080E00E949A0A21E041E0B8
:102CF000602F84E00E949A0A143608F483C0812F62
:102D000064E60E94152E292F30E0812F90E0821B6F
:102D1000930B64E670E00E94352E605D6983812F1D
:102D20006AE00E94152E492FC901841B91096AE0AF
:102D300070E00E94352E605D6A83405D4B831C828B
:102D4000BE016F5F7F4F80911507909116070E941B
:102D50006F0967EE71E080911507909116070E9448
:102D6000210A8091170790911807009729F0BE015A
:102D70006F5F7F4F0E94210A80911707909118077B
:102D8000009721F06EEC77E00E949606A12C0A2DA8
:102D900010E080911507909116070C151D0508F09D
:102DA00051C00E0D1F1DF8014081403108F043C095
:102DB00062E671E00E94210AF801408150E070E073
:102DC00060E020E180911507909116070E94770935
:102DD0008091170790911807009721F06CEC77E02D
:102DE0000E9496068091170790911807009741F06E
:102DF000F801408150E070E060E020E10E94770936
:102E0000A394C5CF1A3098F0812F6AE00E94152E46
:102E1000292F412F491B550BCA016AE070E00E941F
:102E2000352E605D6983205D2A831B8289CF105D0A
:102E300019831A8285CF50E070E060E020E10E94A3
:102E40007709D0CF6DE571E00E946F09E0916107CD
:102E5000F0916207309709F00995809117079091DA
:102E60001807009711F00E946B090E94CB10811186
:102E700017C050E040E063E087E00E94230A8FEF34
:102E80009FEF0F900F900F900F90DF91CF911F91B8
:102E90000F91FF90EF90DF90CF90BF90AF9008958B
:102EA00060E470E08EE197E00E94700A892B29F4BB
:102EB000BB2019F083E090E0E4CFE0916507F0914A
:102EC0006607309709F0099549E064E08EE197E0E4
:102ED0000E947910892B49F450E040E062E088E0DC
:102EE0000E94230A81E090E0CCCF49E066E08EE1C9
:102EF00097E00E947910892BE9F280911E078823C0
:102F0000C9F20E94AA15BDCFCF92DF92EF92FF9235
:102F10001F93CF93DF931F92CDB7DEB7162F20916B
:102F20006707309168072115310539F022303105E6
:102F300009F44AC083E090E00BC0411112C019822D
:102F4000262F482F61E070E0CE0101960E944A16BC
:102F50000F90DF91CF911F91FF90EF90DF90CF9076
:102F6000089560E470E08EE197E00E94700A892B7A
:102F700011F41111DFCFE0916507F09166073097EA
:102F800009F0099549E064E08EE197E00E9479102C
:102F9000892B49F450E040E062E088E00E94230A77
:102FA00081E090E0D5CF49E066E08EE197E00E94B5
:102FB0007910892B09F4BECF80911E07882309F46C
:102FC000B9CF0E94AA15C4CFEEE1F7E080E4DF019B
:102FD0001D928A95E9F78091150790911607FC01DB
:102FE000C480D580E680F78044E650E060E070E081
:102FF000448355836683778340E450E06EE177E055
:103000000E948205892B39F0E0916507F0916607EF
:10301000309709F00995E0911507F0911607C482E1
:10302000D582E682F782C8CFEF92FF920F931F936B
:10303000CF93DF93FC01C089D189E684F784809126
:103040001D07918190FFC3C00E941215F7010190E6
:103050000020E9F7CF0141978E159F0549F4FE0145
:1030600001900020E9F7CF0181978C179D0741F06F
:1030700050E040E068E087E00E94230A80E09AC0C8
:1030800000E410E02EE137E049E065E085E00E94D1
:103090000E0B6EE177E081E00E942D12B70182E015
:1030A0000E942D12BE0185E00E942D12809117070B
:1030B00090911807009721F06DE671E00E94210AB7
:1030C00021E041E060E080E00E949A0A21E040E0D7
:1030D00064E080E00E949A0A6DE571E08091150736
:1030E000909116070E946F09E0916107F0916207C5
:1030F000309709F00995809117079091180700976C
:1031000011F00E946B090E94CB1080911C070E9455
:10311000FC1280911B070E94741280E00E947015BF
:1031200050E040E064E08823B9F060E470E08EE1B4
:1031300097E00E94700A49E063E08EE197E00E9408
:103140007910892B99F04EE157E065E087E00E9405
:10315000230A50E040E069E087E00E94230A60E132
:1031600077E280E090E00E944405D7CF00E410E0D1
:103170002EE137E043E063E080E00E940E0B4EE179
:1031800057E061E088E00E94230A2EE137E040E04A
:1031900061E080E00E940E0B6EE177E08AE00E9421
:1031A000BA0B109268071092670765E971E084E135
:1031B0000E942D1291E0892790E0919581959109C7
:1031C000DF91CF911F910F91FF90EF9008950485AB
:1031D00015850E941215F80101900020E9F7CF0132
:1031E00009978017910709F043CFFE010190002055
:1031F000E9F7CF0181978C179D0709F039CFF701C7
:1032000001900020E9F7CF0181978E159F0509F005
:103210002FCFB80180E00E942D12B70183E00E94F9
:103220002D12BE0184E00E942D1280911C070E9485
:10323000FC1280911B070E94741281E00E9470159D
:1032400060E470E08EE197E00E94700A49E063E07C
:103250008EE197E00E947910892B51F04EE157E002
:1032600066E087E00E94230A50E040E069E003CF77
:1032700000E410E02EE137E043E063E080E00E94EC
:103280000E0B4EE157E060E088E00E94230A81E0E7
:1032900091CF2F923F924F925F926F927F928F9237
:1032A0009F92AF92BF92CF92DF92EF92FF920F93D5
:1032B0001F93CF93DF93CDB7DEB765970FB6F89422
:1032C000DEBF0FBECDBF6C017D8B6C8BDC018C91A2
:1032D0008250FE0131967F0110E000E0833008F05B
:1032E00064C110928000109281001092820081E0EF
:1032F00080936F000E949A0465E871E088E00E9464
:103300002D12B82E10921D07D60111968C9182FDB8
:1033100063C0C6010E941418892B09F45DC067E9D7
:1033200071E088E296E00E940F0A88248A94982C23
:10333000D60119962D903C9080EE91ECABE6B3E36C
:10334000888B998BAA8BBB8BB12CA12C11E0412CC3
:10335000512C32010A2D411451046104710409F009
:1033600091C01F9295E09F931F921F92ABEAB1E02C
:10337000BF93AF93FF92EF920E94882FA701602F17
:1033800081E00E94EA100FB6F894DEBF0FBECDBFF9
:10339000182340E050E0BA0120FE9CC0D6011196EF
:1033A0008C9140E050E068EC72E481FD93C0F6013E
:1033B00081859285F3E0AF16B1040CF068C1877087
:1033C000992760E0009709F476C09C0121503109EB
:1033D000822393236F5FF6CFF601818101E00B25F5
:1033E00010E080FD35C083E38F9383ED8F9386EEED
:1033F0008F9388E08F931F921F9287E791E09F93AE
:103400008F93FF92EF920E94882FB70180E10E9474
:103410002D12082FD60116968C9116978F9315961C
:103420008C918F938EEA91E09F938F93FF92EF920E
:103430000E94882FB7018CE00E942D1208230B21D7
:1034400081E0082710E00FB6F894DEBF0FBECDBFB5
:1034500088249924801A910A6BCF98E0A916B104A8
:1034600024F0488859886A887B8888899989AA893C
:10347000BB89805C924FAC4FBF4F888B998BAA8BD6
:10348000BB8B68CF7F926F925F924F928AE791E0F9
:103490009F938F93FF92EF920E94882FA7016A2D2E
:1034A00082E00E94EA100FB6F894DEBF0FBECDBFD7
:1034B000811157CF6DCF70E090E080E00E94AC2A80
:1034C0009B01AC0160E070E080E89FE30E94E22C89
:1034D000AB01BC01802F0E948B1118233FEFA31A70
:1034E000B30A3694279480E1A816B10409F0B5CF49
:1034F00001E01027012F10E011950195110908290D
:103500001929D6011B964C901B971996AD90BC902B
:10351000512C9924939422E0622E712CC501817064
:103520009927F301E81BF90BEE0FFF1FED50F94F40
:1035300065917491C7010E94542AA701652D83E00B
:103540000E94EA109822B694A7945394B0E15B12BB
:10355000E5CFEFEF4E12C2C01F9285E08F938EEA47
:1035600091E09F938F93FF92EF920E94882FB70173
:1035700087E00E942D12B82E6EE771E088E00E946D
:103580002D1291E090931D078B2198220F900F90A0
:103590000F900F900F900F9081E09826892D90E06A
:1035A000919581959109082B192BD60112968C9132
:1035B0001F928F938EEA91E09F938F93FF92EF92E9
:1035C0000E94882FB70186E00E942D1291E0892782
:1035D00090E0919581959109082B192BEC89FD8933
:1035E000F093A802E093A7021092A00210929F020B
:1035F00010820F900F900F900F900F900F90011569
:10360000110509F5D6018C91833009F07EC089ED52
:103610009DE19093600780935F0780E499E0909329
:1036200062078093610787E199E090936407809334
:10363000630783EC98E09093660780936507D092C8
:10364000A602C092A5020E9476056093A102709323
:10365000A2028093A3029093A402C80165960FB6BC
:10366000F894DEBF0FBECDBFDF91CF911F910F91B8
:10367000FF90EF90DF90CF90BF90AF909F908F9092
:103680007F906F905F904F903F902F90089528E02B
:10369000A216B10464F4887F992760E0009791F046
:1036A0009C0121503109822393236F5FF7CF882734
:1036B00060E0009739F09C01215031098223932367
:1036C0006F5FF7CF70E090E080E00E94AC2A9B0132
:1036D000AC016DEC7CEC8CEC9DE3F8CE65E871E020
:1036E00088E00E942D12B82E10921D071F924F9253
:1036F0008EEA91E09F938F93FF92EF920E94882F22
:10370000B70187E00E942D123FCF89E49DE181CF70
:103710006091A7027091A8028091A5029091A602E3
:103720000E9449198091A5029091A6020E94141846
:1037300090E080E008950F931F93CF93DF93833041
:10374000910574F48130910534F4D0E0C0E0019625
:1037500041F189E19CEFDF91CF911F910F91089585
:103760000397B9F700E410E02EE137E045E161E0AE
:1037700080E00E940E0B892B29F140E150E070E0BF
:1037800060E08EE197E00E94EF286F70772781E07C
:1037900090E0672B11F490E080E09195819591097C
:1037A000DACF4AE06C2F8EE197E00E947910892BE6
:1037B00021F02196CD30D105A1F7882799278C1BC0
:1037C0009D0BC9CF8FEF9FEFC6CF8091A90290913B
:1037D000AA02892BA9F482E090E09093AA02809338
:1037E000A90240E060E081E00E9484170E949B1BD8
:1037F0008F3F2FEF92073CF4873F2FEF920711F492
:1038000090E080E008950297D9F780919F0290910F
:10381000A00208958091A9029091AA02892B19F023
:1038200090E080E00895E091A502F091A6028181E8
:1038300083FD1BC083E090E09093AA028093A902CD
:1038400041E061E082E00E9484170E949B1B8F3F51
:10385000980731F31092AA021092A90201970297D9
:1038600008F453C08FEF9FEF089582E090E09093AB
:10387000AA028093A90240E060E083E00E948417DE
:103880000E949B1B20919F023091A00297FF1CC0B9
:103890002430310594F48F3F980739F484E090E0A8
:1038A0009093AA028093A902BBCF099619F485E0F0
:1038B00090E0F6CF83E090E0F3CF2F5F3F4F30935F
:1038C000A00220939F02CECF2F5F3F4F3093A002E4
:1038D00020939F02E091A702F091A80240814F5FE0
:1038E0004083029739F41092AA021092A90281E053
:1038F00090E0089581E090E02530310514F490E0E7
:1039000080E0919581959109089582E090E0089575
:103910008F929F92AF92BF92CF92DF92EF92FF92DF
:103920000F931F93CF93DF93CDB7DEB7C65FD10957
:103930000FB6F894DEBF0FBECDBF8091A902909163
:10394000AA02892B09F07DC081E090E09093AA0241
:103950008093A902E091A502F091A602118113FBC8
:10396000112710F91E5F838190E0B0E0A0E0CD50F8
:10397000DF4F88839983AA83BB83C35FD040CE0186
:1039800001967C016C01812C912C54018A94E09168
:10399000A502F091A602638170E0C6018E199F090D
:1039A000861797076CF4CE018D509F4F0E944B28CD
:1039B000A50194010E94FD2BF60161936F01E7CFF1
:1039C000218101E023FB222720F92027412FC70175
:1039D0000E944A160E949B1B97FF36C08F3F980794
:1039E00031F524E030E03093AA022093A902E0915F
:1039F000A502F091A60221812695269526952027DD
:103A0000822F817090E0CA50DF4F0FB6F894DEBF6E
:103A10000FBECDBFDF91CF911F910F91FF90EF901F
:103A2000DF90CF90BF90AF909F908F900895873F89
:103A30002FEF920741F785E090E09093AA028093E0
:103A4000A90290E080E0DFCF1092A00210929F02C6
:103A5000E091A702F091A80220812F5F20830197B7
:103A6000029770F4E091A502F091A602818183FD96
:103A700007C01092AA021092A90282E090E0C3CF80
:103A800084E090E09093AA028093A90281E090E004
:103A9000BACFAF92BF92CF92DF92EF92FF920F9385
:103AA0001F93CF93DF9320910C0130910D01232BB5
:103AB00009F474C0C42F8B01D92FB82E61EB71E0CB
:103AC00088E296E00E94210A4C2F50E070E060E00E
:103AD0002AE088E296E00E94770968EB71E088E2CC
:103AE00096E00E94210AA80170E060E02AE088E2E6
:103AF00096E00E94770960EC71E088E296E00E940F
:103B0000210A90E080E00E94FF0968EC71E088E201
:103B100096E00E94210AC801880F991F0E944F2E2B
:103B20007C01892B49F1CB2CDD2ED0E0C0E032EDB9
:103B3000A32E31E0B32E0C171D07F1F0209721F0D2
:103B40008AE390E00E94812FF60181916F011F921C
:103B50008F93BF92AF92CE01880F991F8E0D9F1D3C
:103B60009F938F930E94882F21960F900F900F9014
:103B70000F900F900F90DFCFB70188E296E00E9480
:103B80000F0AC701DF91CF911F910F91FF90EF9026
:103B9000DF90CF90BF90AF900C94EB2EDF91CF9140
:103BA0001F910F91FF90EF90DF90CF90BF90AF905B
:103BB0000895FF920F931F93CF93DF9361307105A8
:103BC00031F4FC0120812235A9F02335E9F0F42EEF
:103BD000EB018C0167ED71E088E296E00E94210A1A
:103BE0004F2DBE01C801DF91CF911F910F91FF9022
:103BF0000C94491D7093A00260939F02DF91CF91B6
:103C00001F910F91FF90089582E090E09093A002A1
:103C100080939F02F3CF1F920F920FB60F92112441
:103C20002F933F938F939F93AF93BF938091FA0508
:103C30009091FB05A091FC05B091FD053091F9052F
:103C400023E0230F2D3758F50196A11DB11D2093B8
:103C5000F9058093FA059093FB05A093FC05B093BA
:103C6000FD058091FE059091FF05A0910006B091A1
:103C700001060196A11DB11D8093FE059093FF05DD
:103C8000A0930006B0930106BF91AF919F918F91D1
:103C90003F912F910F900FBE0F901F90189526E81F
:103CA000230F0296A11DB11DD2CF1F920F920FB606
:103CB0000F9211242F933F934F935F936F937F93B2
:103CC0008F939F93AF93BF93CF93EF93FF93C09145
:103CD000E1008091E100837F8093E100C3FF0FC08A
:103CE0001092E90081E08093EB001092EC0082E3F7
:103CF0008093ED0010920F0688E08093F000C2FFE1
:103D00001AC00E94EF0480919402882341F08091B0
:103D10009402815080939402811101C05D9A809138
:103D20000E06882341F080910E06815080930E0686
:103D3000811101C0289AC4FF23C08091E2008E7EC9
:103D400081608093E2008091E1008F7E8093E100AA
:103D5000809195028E7E806180939502FF91EF9114
:103D6000CF91BF91AF919F918F917F916F915F9113
:103D70004F913F912F910F900FBE0F901F9018956C
:103D8000C0FFECCF8091E2008E7E80618093E200E4
:103D90008091E1008E7E8093E100809195028E7E7D
:103DA0008160DACF1F920F920FB60F921124CF923B
:103DB000DF92EF92FF920F931F932F933F934F93B6
:103DC0005F936F937F938F939F93AF93BF93EF9383
:103DD000FF93CF93DF93CDB7DEB76C97DEBFCDBF38
:103DE0001092E9008091E80083FF25C068E0CE01D1
:103DF00045960E94890682EF8093E8008D8987FFAF
:103E000039C09091E80090FFFCCF982F907609F090
:103E100034C19E894F89588D2F89F88C911131C0FA
:103E2000803861F5809196028093F1001092F10044
:103E30008EEF8093E8006C960FB6F894DEBF0FBE4D
:103E4000CDBFDF91CF91FF91EF91BF91AF919F9146
:103E50008F917F916F915F914F913F912F911F9122
:103E60000F91FF90EF90DF90CF900F900FBE0F90CB
:103E70001F9018959EEF9093E800C7CF1092F10025
:103E8000D5CF913059F48111D3CF4130510581F60E
:103E9000809196028D7F80939602CACF933049F429
:103EA0008111C6CF4130510519F68091960282608A
:103EB000F2CF953041F48091E80080FFFCCF20687C
:103EC0002093E300B5CF963009F0A9C00B8D1C8D6F
:103ED00022E01092E9001092920210929102F212E6
:103EE0002EC01092900210928F020E9458061F82DC
:103EF00099E09983FA8291E09E8390EA98879AEFFD
:103F000099872091910230919202275F3F4F3C8325
:103F10002B838D831092E9001092920210929102ED
:103F20001093900200938F0249E050E0BE016F5F52
:103F30007F4F80E00E9432060E94580679CF10938E
:103F4000900200938F020E940B05DC0112960D91E6
:103F50001C910115110509F451C1D801ED91FC9195
:103F60000480F581E02DBE016B5E7F4FC80109958D
:103F7000009709F03EC1F80100851185EACFF3E012
:103F8000FF120EC08F89882309F440C0823061F48B
:103F900040E860E18BEB97E00E94FF05811148CF7C
:103FA00081E28093EB0047CF813029F440E86BE059
:103FB0008FEA97E0F1CF833099F70E940B05DC017F
:103FC0001296ED90FC908E010F5F1F4F6801E11477
:103FD000F10479F0D701ED91FC910680F781E02D95
:103FE000B801C7010995080F111DF701E084F1849C
:103FF000EECFD8011C92F60101900020E9F731972D
:10400000BF016C197D0940E0C601C6CF69E977E0C0
:10401000FB01449150E080E80E94320609CF9730BE
:1040200009F4BECF983021F481E08093F10000CFF5
:10403000993009F0FDCE837009F0B2CFEBE1F1E0E9
:1040400081E031E096E32191222371F08093E90031
:104050003093EB00DF0111972C912093EC009093AB
:10406000ED008F5F873079F78EE78093EA0010923A
:10407000EA008F8980930F06DBCE8B8D9C8D10928A
:10408000E900109292021092910290939002809314
:104090008F02898D811192C08E899D89913A49F450
:1040A000813209F07DCF47E050E064E071E080E0CC
:1040B000B3CF913209F074CF833269F48F89988D30
:1040C000B0E0A0E08093000190930101A093020171
:1040D000B0930301ADCE803269F48091E80082FF95
:1040E000FCCF67E084E091E00E9489068BEF80932B
:1040F000E8009ECE823209F09BCE8F8980930B011F
:10410000EEEFFFE7859194918B3F9C4D51F1E0E0FC
:10411000F8E08091040190910501A0910601B09111
:104120000701803B9440A105B105F1F480910B019A
:1041300080FD1AC0EE3F8AE0F80789F587E797E728
:1041400091838083809160008093930288E19BE05B
:104150000FB6F894A895809360000FBE909360000E
:1041600067CEEEEFFAE0D5CF808191818737974710
:1041700009F05ECEA8958091600088618093600010
:104180008091930280936000EE3F2AE0F20789F06D
:104190008091FE0A9091FF0A9183808349CE8081AD
:1041A00091818737980751F29093FF0A8093FE0A16
:1041B000C5CF1092FF0A1092FE0A3ACE0E940B055C
:1041C000DC0112960D911C910115110509F4E8CE40
:1041D000D801ED91FC910190F081E02DBE016B5E64
:1041E0007F4FC8010995811123CEF8010085118503
:1041F000EBCF181619060CF41BCED2CEF1E0FF124D
:10420000BECE6DE977E004CF1F920F920FB60F92EA
:1042100011242F933F934F935F936F937F938F93CB
:104220009F93AF93BF93EF93FF9388E796E00E942D
:104230003807FF91EF91BF91AF919F918F917F913F
:104240006F915F914F913F912F910F900FBE0F9003
:104250001F9018951F920F920FB60F9211242F9353
:104260008F939F93EF93FF93E0918806F0918906D7
:104270008081E0918E06F0918F0682FD1BC09081B7
:10428000809191068F5F8F7320919206821741F083
:10429000E0919106F0E0E858F94F958F80939106F0
:1042A000FF91EF919F918F912F910F900FBE0F90E3
:1042B0001F9018958081F4CF1F920F920FB60F9226
:1042C00011248F939F9380918D0290918E0201967D
:1042D00090938E0280938D029F918F910F900FBECD
:1042E0000F901F901895CF93DF93E8E7F6E01382C5
:1042F00012828DE391E0918380838DEC90E095872D
:1043000084878CEC90E09787868788EC90E0918B8F
:10431000808B89EC90E0938B828B8AEC90E0958B7C
:10432000848B8EEC90E0978B868B118E128E138E81
:10433000148EC8E2D6E01B821A8288EE93E0A0E0D9
:10434000B0E08C839D83AE83BF838FE491E099833B
:1043500088838FEF9FEF9D878C87A0E1B6E01C924A
:1043600012961C92129781E013968C93139785E016
:1043700014968C93149788EE93E016969C938E93E4
:10438000159780ED97E018969C938E9317978FEF73
:104390001B968C931B971D961C921E921C971F9622
:1043A0001C921E921E9751961C921E9250975396E5
:1043B0001C921E92529755961C921E925497579695
:1043C0001C921E925697A5E1B7E010925E071092DC
:1043D000680710926707109269071396DC93CE93D3
:1043E00012971196FC93EE9340E157E260E070E083
:1043F000448355836683778315961C921E92149787
:1044000087E016968C93169782E017968C931797F1
:1044100018961C921092600710925F071092620724
:10442000109261071092640710926307109266075A
:1044300010926507DF91CF910895CF93DF93CDB7A9
:10444000DEB7C658D1090FB6F894DEBF0FBECDBF98
:10445000789484B5826084BD84B5816084BD85B55F
:10446000826085BD85B5816085BD80916E0081606B
:1044700080936E0010928100809181008260809311
:104480008100809181008160809381008091800013
:104490008160809380008091910082608093910080
:1044A0008091910081608093910080919000816063
:1044B000809390008091C10084608093C1008091BE
:1044C000C10082608093C1008091C10081608093AF
:1044D000C1008091C30081608093C3008091C000BF
:1044E00082608093C0008091C20081608093C2008E
:1044F00080917A00846080937A0080917A00826053
:1045000080937A0080917A00816080937A00809114
:104510007A00806880937A0010920F0610929602BB
:10452000109295028091D70081608093D70080EA35
:104530008093D80089B5806189BD89B5826089BDC5
:1045400009B400FEFDCF61E070E080E090E00E94E1
:1045500044058091D8008F7C80618093D800809141
:10456000E000807F8093E0008091E1008E7E809368
:10457000E1008DE08093E200559A209A8FEF9FEF43
:10458000909335068093340607EE13E0F0900B010C
:104590006AE070E080E090E00E944405F11006C0FF
:1045A0000115110519F001501109F0CF10930D01FB
:1045B00000930C01479A64EF71E080E090E00E9464
:1045C000440547986CE070E090E080E00E945C0C4D
:1045D0000E94EF0448EEC42E43E0D42EE12CF12CCF
:1045E0008091F7059091F805892B69F40E94380DA8
:1045F00080E090E0892BA1F30E942407882381F3B7
:104600000E940000EDCF8091A9029091AA02833010
:10461000910509F450C030F58130910509F44BC083
:10462000029709F465C0E0910E01F0910F013196F7
:10463000E231F10508F00FC5E05EFC4D0C94492E07
:104640001E2803242B2446248A24BC242B282B2810
:104650002B282B282B282B282B282B282B282B28C2
:10466000FE24FE278530910509F492C008F47DC030
:104670000697C9F60E94760500919B0210919C0254
:1046800020919D0230919E02601B710B820B930B57
:1046900000919702109198022091990230919A020C
:1046A000061717072807390708F0BDCF1092AA028E
:1046B0001092A902B8CF0E94760560939B02709376
:1046C0009C0280939D0290939E0284E690E0A0E07D
:1046D000B0E08093970290939802A0939902B093D0
:1046E0009A0286E090E09093AA028093A9029BCF61
:1046F0000E94760560939B0270939C0280939D02BA
:1047000090939E020E94E10CE82FA091A702B09125
:10471000A80258968C930091A5021091A602D80188
:1047200013962C91235F30E0A0E4BFE10E94662C39
:10473000E63008F0E5E0B4E0EB9FF0011124EF5D16
:10474000FE4F20813181428153810E94DB2BF80191
:1047500087819085B0E0A0E088519C4FAF4FBF4F5C
:10476000820F931FA41FB51FB4CF0E9476056093DC
:104770009B0270939C0280939D0290939E02E09115
:10478000A502F091A60285819681B0E0A0E0A1CFBC
:104790000E94760560939B0270939C0280939D0219
:1047A00090939E020E94E10CE82FA091A702B09185
:1047B000A80258968C93A091A502B091A6021396D8
:1047C0002C91235F30E0A0E4BFE10E94662CE6302C
:1047D00008F0E5E024E0E29FF0011124EF5DFE4FD8
:1047E00020813181428153810E94DB2BA3E6B0E01E
:1047F0000E941C2C609397027093980280939902F8
:1048000090939A026ECF1092F6051092F505EDEA9C
:10481000F2E088E493E0DF019C011D9221503040DA
:10482000E1F7BF0180E196E00E944919892B39F038
:104830008FEF9FEF90930F0180930E01CBC081E02B
:1048400090E090930F0180930E0170E060E090E0A3
:1048500080E00E945C0C8091F7059091F80502972A
:104860001CF084E090E0E6CFE0912206F091230670
:10487000309731F00995009709F4ACC097FDD8CF77
:1048800082E090E090930F0180930E011092AC02B1
:104890001092AB028091F7059091F80502970CF702
:1048A000E0912406F0912506309741F1099597FF94
:1048B00019C081E090E09093AC028093AB0284E059
:1048C00090E090930F0180930E016AE070E090E019
:1048D00080E00E945C0C62E070E090E080E00E946A
:1048E0005C0C78C0009709F475C0029739F484E035
:1048F00090E090930F0180930E01EDCF61E070E0A6
:1049000090E080E00E945C0C83E090E090930F01C7
:1049100080930E018091F7059091F80502970CF0B5
:10492000A0CFE0912606F0912706309709F452C0F7
:10493000099597FF4CC081E090E09093AC02809382
:10494000AB0268E070E090E080E00E945C0C84E0E4
:1049500090E090930F0180930E0162E070E090E090
:1049600080E00E945C0C8091F5059091F60501961F
:104970009093F6058093F505809114062091AB0283
:104980003091AC02232B41F02091F5053091F605D2
:104990008217130609F014F4811124C08091F705E1
:1049A0009091F8050297F4F48091A9029091AA02DF
:1049B000892B81F41092A00210929F0282E090E075
:1049C00090930F0180930E0163E070E086CF892BF6
:1049D00009F0BDCF88E296E00E948208892B09F495
:1049E00007CE04CE8FE090E090930F0180930E01EC
:1049F00064E070E090E080E00E945C0CA090A70270
:104A0000B090A80210E000E0A114B10409F441C084
:104A10000E9476050091A1021091A2022091A302AA
:104A20003091A402601B710B820B930BD501119680
:104A30006D937D938D939C931497E091A502F091D3
:104A4000A6028081813009F0CAC1A185B28520EA21
:104A500036E841E050E00E941C2CD50151966D9340
:104A60007D938D939C935497868557968C935797F7
:104A7000838558968C935897828159968C93009190
:104A8000A7021091A802C8014C969093A8028093A7
:104A9000A70280910C0190910D01892B09F4B0C0FF
:104AA00070E060E081E090E00E945C0CF8014789D2
:104AB00050E070E060E02AE088E296E00E9477092A
:104AC00061E070E081E090E00E945C0CD8015896B3
:104AD0004C9150E070E060E02AE088E296E00E94AD
:104AE000770962E070E081E090E00E945C0CF801E0
:104AF0004589568970E060E02AE088E296E00E94ED
:104B0000770988E296E00E946B0963E070E081E03B
:104B100090E00E945C0CD80151964D915D916D9191
:104B20007C9154972AE088E296E00E94770964E03D
:104B300070E081E090E00E945C0CF801818D082E0D
:104B4000000C990B0E94FF0965E070E081E090E0A5
:104B50000E945C0CD8015A968C91082E000C990B7F
:104B60000E94FF0966E070E081E090E00E945C0C2A
:104B7000F801838D082E000C990B0E94E20967E072
:104B800070E081E090E00E945C0CD80115966D9178
:104B90007D918D919C9118970E94F70B6AE070E0CF
:104BA00081E090E00E945C0C68E070E081E090E0C1
:104BB0000E945C0CF80161857285838594850E9452
:104BC000F70B6AE070E081E090E00E945C0C69E025
:104BD00070E081E090E00E945C0CD8011D966D9120
:104BE0007D918D919C9150970E94F70B6AE070E047
:104BF00081E090E00E945C0C88E296E00E946B09E4
:104C0000B5E0093D1B0738F48091F7059091F80550
:104C100002970CF4E7C167E070E090E080E00E944A
:104C20005C0C0D5A1240159507951595079527EBC5
:104C30003DE6029FC001039F900D129F900D11242D
:104C4000FC013196CF57DF4FF983E883C158D0403C
:104C50006DE070E090E080E00E945C0C22242394E0
:104C6000312C0DEA12E0CF57DF4F88819981C1586E
:104C7000D0408F31910514F08EE190E082159305BC
:104C80000CF4A3C1D8011D968D919D910D90BC91FE
:104C9000A02DCD57DF4F88839983AA83BB83C35848
:104CA000D040F80141845284638474848580968066
:104CB000A780B084838D282F082E000C330B3F93E0
:104CC0008F93828D282F082E000C330B3F938F93E8
:104CD000818D282F082E000C330B3F938F93808DEE
:104CE0001F928F9384898F9383898F9382898F9367
:104CF00081898F9386898F9385898F93CD57DF4FD5
:104D000088819981C358D04068EE73E00E94212EBB
:104D10009F938F93CD57DF4F688179818A819B81E3
:104D2000C358D040A70196010E94DB2B5F934F939D
:104D30003F932F93C20168EE73E00E94212E9F9350
:104D40008F93C301B201A70196010E94DB2B5F93F1
:104D50004F933F932F93C40168EE73E00E94212E7E
:104D60009F938F93C501B401A70196010E94DB2B8D
:104D70005F934F933F932F93D8018C911F928F9302
:104D800014968C9114978F9313968C9113978F93FD
:104D900012968C9112978F9311968C918F933F92CC
:104DA0002F92E9EEF1E0FF93EF9381E090E08C0F1A
:104DB0009D1F9F938F930E94882F0FB6F894DEBF9C
:104DC0000FBECDBFBE016F5F7F4F88E296E00E94AD
:104DD0000F0ABFEF2B1A3B0A045E1F4F44CF00E4BB
:104DE00010E02EE137E048E066E086E00E940E0B1E
:104DF000892B09F4D9C08EE197E00E94242AF5019D
:104E0000618B728B838B948BA090A702B090A802C9
:104E1000D50156961C921E92559710E000E02AE0AC
:104E2000722E3AE0832E912C802F0A3008F4C0C0F5
:104E3000672D0E94152E292FC801821B9109B401EC
:104E40000E94352E605D6983205D2A831B8220E0ED
:104E500041E060E080E00E949A0A20E041E069E0E1
:104E600080E00E949A0A20E041E061E181E00E9436
:104E70009A0A20E041E063E083E00E949A0ABE01C2
:104E80006F5F7F4F80911507909116070E946F0901
:104E90006DE571E080911507909116070E946F09EA
:104EA00060E470E08EE197E00E94700A892B49F07F
:104EB00049E061E08EE197E00E94791021E0892BC2
:104EC00009F020E0822F90E0002E02C0880F991F89
:104ED0000A94E2F7F50125893689822B932B968B6C
:104EE000858B0F5F1F4F0031110509F09DCFA090FA
:104EF000A702B090A80200E410E02EE137E046E0FF
:104F000066E086E00E940E0B039708F456C080E22C
:104F100097E00E94062AD50157968C930E94E10CD7
:104F2000A090A702B090A802F501808F00E410E0E5
:104F30002EE137E04BE066E086E00E940E0B892B05
:104F4000F1F18EE197E00E94062AD50159968C93E3
:104F5000A090A702B090A80200E410E02EE137E094
:104F60004CE066E086E00E940E0B892B51F18EE149
:104F700097E00E94062AF501828FA090A702B090C8
:104F8000A80200E410E02EE137E04DE066E086E0A4
:104F90000E940E0B892BB9F08EE197E00E94062A41
:104FA000D5015B968C936BCD60E070E0CB0127CF91
:104FB00080E3800F89831A824ACF80E0ACCF80E8FB
:104FC000C4CF80E8D8CF80E8EBCFE4E1F0E0F09305
:104FD0000F01E0930E0182E090E09093F80580933A
:104FE000F705F8CC80E190E090930F0180930E01DB
:104FF00065E070E090E080E00E945C0C8091A90286
:105000009091AA02892B09F0E5CC6091A7027091DA
:10501000A8028091A5029091A6020E944919892BAD
:1050200069F466E070E090E080E00E945C0C109211
:10503000F6051092F50582E090E0FCCB6AE070E0A6
:1050400090E080E00E945C0C24E130E030930F019E
:1050500020930E01C0CF8091F7059091F805813023
:10506000910529F410920F0110920E01B3CC892BF7
:1050700009F4B0CC69E070E090E080E00E945C0C44
:105080006CE070E090E080E00E945C0C1092F8050B
:105090001092F7059FCC8F929F92AF92BF92CF92C2
:1050A000DF92EF92FF92CF93DF93EC0168817981D9
:1050B0008A819B81611571058105910521F464E266
:1050C00079ED8BE597E02DE133EF41E050E00E9470
:1050D000FD2B49015A019B01AC01A7EAB1E40E94F2
:1050E0001C2C6B017C01ACEEB4EFA50194010E9475
:1050F0002A2CC60ED71EE81EF91EF7FE06C081E058
:10510000C81AD108E10880E8F80AC882D982EA8280
:10511000FB82C701B6019F77DF91CF91FF90EF909F
:10512000DF90CF90BF90AF909F908F9008958F9217
:105130009F92AF92BF92CF92DF92EF92FF926091D7
:10514000100170911101809112019091130161156C
:1051500071058105910521F464E279ED8BE597E015
:105160002DE133EF41E050E00E94FD2B49015A014F
:105170009B01AC01A7EAB1E40E941C2C6B017C01ED
:10518000ACEEB4EFA50194010E942A2CC60ED71EE6
:10519000E81EF91EF7FE06C081E0C81AD108E10832
:1051A00080E8F80AC0921001D0921101E092120139
:1051B000F0921301C701B6019F77FF90EF90DF9047
:1051C000CF90BF90AF909F908F9008956093100103
:1051D0007093110180931201909313010895B0E030
:1051E000A0E0E5EFF8E20C94302C5C016B017A0151
:1051F0006115710519F0FB0191838083E114F104BD
:1052000051F0C7010297839730F040E030E020E092
:1052100090E072C05E01E5012196F5011081812FB9
:1052200090E00E944B2A892BA9F71D3201F52196A7
:10523000F501118101E0E114F10409F4DAC0F0E1B3
:10524000EF16F10409F082C0103359F488818F7D84
:10525000883509F076C0198122960260F0E1EF2EC0
:10526000F12C812C912CA12C88E0B82E8CC01B3203
:1052700021F4E5012296F501118100E0DCCFEAE09E
:10528000EE16F10409F4BBC0F0E1EF16F10409F0E9
:105290006DC0E7CF78E0E72EF12C812C912CA12C6A
:1052A00060E1B62E70C03FE9310F3A3128F439EA97
:1052B000332E80C021E09AC0302F3170C114D10448
:1052C00031F0222309F12197F601D183C08327FF12
:1052D00021C060E070E080E090E8311104C06FEF21
:1052E0007FEF8FEF9FE722E230E030936D0720934E
:1052F0006C07462F372F282F642F732F822FCDB79F
:10530000DEB7E1E10C944C2C01FF04C02297F601BA
:10531000D183C083332341F090958095709561953A
:105320007F4F8F4F9F4FE5CF97FFE3CF82E290E013
:1053300090936D0780936C076FEF7FEF8FEF9FE780
:10534000D8CF10E3E114F10409F4A4CF28E0E21669
:10535000F10409F4A2CF0CF092CF812C912CA12C56
:10536000E0E4BE2E82E0E816F10469F060E070E04F
:1053700080E090E897010F2C000C440B550B0E9425
:10538000DB2B49015A0120E060E070E0CB012701EE
:105390000F2C000C66087708FE0150ED352E310EFB
:1053A00039E0331540F43FEB310F3A3108F07BCF51
:1053B00049EC342E310E3E141F040CF07DCF27FD36
:1053C00015C086169706A806B90678F0A3019201C3
:1053D0000E94CB2B630D711D811D911D61307105E4
:1053E000810520E8920708F465CF2FEF2196108100
:1053F000D3CF103309F42ACF2AE0E22EF12C9CEC13
:10540000892E982CA82C9CE0B92EBDCFFC018827B2
:105410009927E89421912032E9F3293010F02E30B9
:10542000C8F32B3241F02D3239F4689404C00E9445
:105430009C2A820F911D219120532A30C0F31EF423
:10544000909581959F4F08951F93FC019927882778
:10545000BC01E89411911032E9F3193010F01E30BC
:10546000C8F31B3251F01D3249F4689406C00E9403
:10547000872A610F711D811D911D119110531A30E2
:10548000B0F33EF490958095709561957F4F8F4F66
:105490009F4F1F91089591110C94A42A803219F006
:1054A00089508550C8F70895FB01DC0105900D92E5
:1054B0000020E1F708954AE657E00E94602A089527
:1054C000FA01A191B081009719F41097E1F0CD0194
:1054D000DC01CD010D90002011F4C00113C0FB01CF
:1054E0002191222319F02015D9F7F3CFFB01219147
:1054F000201519F41E92119606C02223C1F70D90B3
:105500000020A1F7D001FA01A193B0830895592F8B
:10551000482F372F262F660F771F881F991F660F7A
:10552000771F881F991F620F731F841F951F660FB7
:10553000771F881F991F08957AE0979F902D879F66
:10554000802D910D112408959927882708950E9490
:10555000E92A08F481E00895E89409C097FB3EF435
:1055600090958095709561957F4F8F4F9F4F9923B0
:10557000A9F0F92F96E9BB279395F695879577952E
:105580006795B795F111F8CFFAF4BB0F11F460FFEE
:105590001BC06F5F7F4F8F4F9F4F16C0882311F046
:1055A00096E911C0772321F09EE8872F762F05C05A
:1055B000662371F096E8862F70E060E02AF09A95F5
:1055C000660F771F881FDAF7880F9695879597F9EA
:1055D0000895990F0008550FAA0BE0E8FEEF161684
:1055E0001706E807F907C0F012161306E407F507D7
:1055F00098F0621B730B840B950B39F40A2661F04B
:10560000232B242B252B21F408950A2609F4A140ED
:10561000A6958FEF811D811D08950E94202B0C946B
:10562000912B0E94832B38F00E948A2B20F0952327
:1056300011F00C947A2B0C94802B11240C94C52B14
:105640000E94A22B70F3959FC1F3950F50E0551F58
:10565000629FF001729FBB27F00DB11D639FAA27C7
:10566000F00DB11DAA1F649F6627B00DA11D661F16
:10567000829F2227B00DA11D621F739FB00DA11D37
:10568000621F839FA00D611D221F749F3327A00DF1
:10569000611D231F849F600D211D822F762F6A2F8D
:1056A00011249F5750409AF0F1F088234AF0EE0FF2
:1056B000FF1FBB1F661F771F881F91505040A9F71F
:1056C0009E3F510580F00C947A2B0C94C52B5F3FC4
:1056D000E4F3983ED4F3869577956795B795F7955B
:1056E000E7959F5FC1F7FE2B880F911D96958795D3
:1056F00097F9089597F99F6780E870E060E0089552
:105700009FEF80EC089500240A94161617061806D9
:105710000906089500240A941216130614060506B5
:105720000895092E0394000C11F4882352F0BB0F46
:1057300040F4BF2B11F460FF04C06F5F7F4F8F4FA9
:105740009F4F089557FD9058440F551F59F05F3FE4
:1057500071F04795880F97FB991F61F09F3F79F093
:1057600087950895121613061406551FF2CF469515
:10577000F1DF08C0161617061806991FF1CF869597
:105780007105610508940895E894BB27662777277B
:10579000CB0197F90895DB018F939F930E941C2CF6
:1057A000BF91AF91A29F800D911DA39F900DB29FBD
:1057B000900D11240895A1E21A2EAA1BBB1BFD0116
:1057C0000DC0AA1FBB1FEE1FFF1FA217B307E407E0
:1057D000F50720F0A21BB30BE40BF50B661F771F38
:1057E000881F991F1A9469F7609570958095909518
:1057F0009B01AC01BD01CF010895052E97FB1EF45E
:1058000000940E94142C57FD07D00E94DB2B07FC4C
:1058100003D04EF40C94142C50954095309521955E
:105820003F4F4F4F5F4F08959095809570956195CC
:105830007F4F8F4F9F4F08950E94662CA59F900D1C
:10584000B49F900DA49F800D911D11240895B7FF62
:105850000C941C2C0E941C2C821B930B08952F92DD
:105860003F924F925F926F927F928F929F92AF92F0
:10587000BF92CF92DF92EF92FF920F931F93CF933D
:10588000DF93CDB7DEB7CA1BDB0B0FB6F894DEBFD4
:105890000FBECDBF09942A88398848885F846E84FA
:1058A0007D848C849B84AA84B984C884DF80EE8044
:1058B000FD800C811B81AA81B981CE0FD11D0FB64D
:1058C000F894DEBF0FBECDBFED010895A29FB001D9
:1058D000B39FC001A39F700D811D1124911DB29F24
:1058E000700D811D1124911D08955058BB27AA27C2
:1058F0000E948D2C0C94912B0E94832B38F00E94D7
:105900008A2B20F039F49F3F19F426F40C94802B55
:105910000EF4E095E7FB0C947A2BE92F0E94A22B62
:1059200058F3BA17620773078407950720F079F4D4
:10593000A6F50C94C42B0EF4E0950B2EBA2FA02DD7
:105940000B01B90190010C01CA01A0011124FF272C
:10595000591B99F0593F50F4503E68F11A16F04027
:10596000A22F232F342F4427585FF3CF4695379526
:105970002795A795F0405395C9F77EF41F16BA0BEB
:10598000620B730B840BBAF09150A1F0FF0FBB1F99
:10599000661F771F881FC2F70EC0BA0F621F731FE2
:1059A000841F48F4879577956795B795F7959E3F3F
:1059B00008F0B0CF9395880F08F09927EE0F9795D0
:1059C000879508950E94F62C0C94912B0E948A2BA7
:1059D00058F00E94832B40F029F45F3F29F00C948B
:1059E0007A2B51110C94C52B0C94802B0E94A22B66
:1059F00068F39923B1F3552391F3951B550BBB27FE
:105A0000AA2762177307840738F09F5F5F4F220F42
:105A1000331F441FAA1FA9F335D00E2E3AF0E0E839
:105A200032D091505040E695001CCAF72BD0FE2F83
:105A300029D0660F771F881FBB1F26173707480717
:105A4000AB07B0E809F0BB0B802DBF01FF279358CF
:105A50005F4F3AF09E3F510578F00C947A2B0C94EE
:105A6000C52B5F3FE4F3983ED4F386957795679511
:105A7000B795F7959F5FC9F7880F911D9695879504
:105A800097F90895E1E0660F771F881FBB1F621723
:105A900073078407BA0720F0621B730B840BBA0BE1
:105AA000EE1F88F7E09508950E94AA2B88F09F5773
:105AB00098F0B92F9927B751B0F0E1F0660F771F32
:105AC000881F991F1AF0BA95C9F714C0B13091F028
:105AD0000E94C42BB1E008950C94C42B672F782F3B
